{
	"src/contract/donate.sol": {
		"DonateCrypto": {
			"abi": [
				{
					"inputs": [
						{
							"internalType": "uint256",
							"name": "",
							"type": "uint256"
						}
					],
					"name": "Campaigns",
					"outputs": [
						{
							"internalType": "address",
							"name": "author",
							"type": "address"
						},
						{
							"internalType": "string",
							"name": "title",
							"type": "string"
						},
						{
							"internalType": "string",
							"name": "description",
							"type": "string"
						},
						{
							"internalType": "string",
							"name": "videoUrl",
							"type": "string"
						},
						{
							"internalType": "string",
							"name": "imgUrl",
							"type": "string"
						},
						{
							"internalType": "uint256",
							"name": "balance",
							"type": "uint256"
						},
						{
							"internalType": "bool",
							"name": "active",
							"type": "bool"
						}
					],
					"stateMutability": "view",
					"type": "function"
				},
				{
					"inputs": [
						{
							"internalType": "string",
							"name": "title",
							"type": "string"
						},
						{
							"internalType": "string",
							"name": "description",
							"type": "string"
						},
						{
							"internalType": "string",
							"name": "videoUrl",
							"type": "string"
						},
						{
							"internalType": "string",
							"name": "imgUrl",
							"type": "string"
						}
					],
					"name": "addCampaign",
					"outputs": [],
					"stateMutability": "nonpayable",
					"type": "function"
				},
				{
					"inputs": [
						{
							"internalType": "uint256",
							"name": "id",
							"type": "uint256"
						}
					],
					"name": "donate",
					"outputs": [],
					"stateMutability": "payable",
					"type": "function"
				},
				{
					"inputs": [],
					"name": "fee",
					"outputs": [
						{
							"internalType": "uint256",
							"name": "",
							"type": "uint256"
						}
					],
					"stateMutability": "view",
					"type": "function"
				},
				{
					"inputs": [],
					"name": "nextId",
					"outputs": [
						{
							"internalType": "uint256",
							"name": "",
							"type": "uint256"
						}
					],
					"stateMutability": "view",
					"type": "function"
				},
				{
					"inputs": [
						{
							"internalType": "uint256",
							"name": "id",
							"type": "uint256"
						}
					],
					"name": "withdraw",
					"outputs": [],
					"stateMutability": "nonpayable",
					"type": "function"
				}
			],
			"devdoc": {
				"kind": "dev",
				"methods": {},
				"version": 1
			},
			"evm": {
				"assembly": "    /* \"src/contract/donate.sol\":219:1789  contract DonateCrypto{... */\n  mstore(0x40, 0x80)\n    /* \"src/contract/donate.sol\":267:270  100 */\n  0x64\n    /* \"src/contract/donate.sol\":246:270  uint256 public fee = 100 */\n  0x00\n  sstore\n    /* \"src/contract/donate.sol\":300:301  0 */\n  0x00\n    /* \"src/contract/donate.sol\":276:301  uint256 public nextId = 0 */\n  0x01\n  sstore\n    /* \"src/contract/donate.sol\":219:1789  contract DonateCrypto{... */\n  callvalue\n  dup1\n  iszero\n  tag_1\n  jumpi\n  revert(0x00, 0x00)\ntag_1:\n  pop\n  dataSize(sub_0)\n  dup1\n  dataOffset(sub_0)\n  0x00\n  codecopy\n  0x00\n  return\nstop\n\nsub_0: assembly {\n        /* \"src/contract/donate.sol\":219:1789  contract DonateCrypto{... */\n      mstore(0x40, 0x80)\n      jumpi(tag_1, lt(calldatasize, 0x04))\n      shr(0xe0, calldataload(0x00))\n      dup1\n      0x2e1a7d4d\n      eq\n      tag_2\n      jumpi\n      dup1\n      0x4013be10\n      eq\n      tag_3\n      jumpi\n      dup1\n      0x61b8ce8c\n      eq\n      tag_4\n      jumpi\n      dup1\n      0xddca3f43\n      eq\n      tag_5\n      jumpi\n      dup1\n      0xec671486\n      eq\n      tag_6\n      jumpi\n      dup1\n      0xf14faf6f\n      eq\n      tag_7\n      jumpi\n    tag_1:\n      revert(0x00, 0x00)\n        /* \"src/contract/donate.sol\":1090:1786  function withdraw(uint256 id) public{... */\n    tag_2:\n      callvalue\n      dup1\n      iszero\n      tag_8\n      jumpi\n      revert(0x00, 0x00)\n    tag_8:\n      pop\n      tag_9\n      0x04\n      dup1\n      calldatasize\n      sub\n      dup2\n      add\n      swap1\n      tag_10\n      swap2\n      swap1\n      tag_11\n      jump\t// in\n    tag_10:\n      tag_12\n      jump\t// in\n    tag_9:\n      stop\n        /* \"src/contract/donate.sol\":308:354  mapping (uint256 => Campaign) public Campaigns */\n    tag_3:\n      callvalue\n      dup1\n      iszero\n      tag_13\n      jumpi\n      revert(0x00, 0x00)\n    tag_13:\n      pop\n      tag_14\n      0x04\n      dup1\n      calldatasize\n      sub\n      dup2\n      add\n      swap1\n      tag_15\n      swap2\n      swap1\n      tag_11\n      jump\t// in\n    tag_15:\n      tag_16\n      jump\t// in\n    tag_14:\n      mload(0x40)\n      tag_17\n      swap8\n      swap7\n      swap6\n      swap5\n      swap4\n      swap3\n      swap2\n      swap1\n      tag_18\n      jump\t// in\n    tag_17:\n      mload(0x40)\n      dup1\n      swap2\n      sub\n      swap1\n      return\n        /* \"src/contract/donate.sol\":276:301  uint256 public nextId = 0 */\n    tag_4:\n      callvalue\n      dup1\n      iszero\n      tag_19\n      jumpi\n      revert(0x00, 0x00)\n    tag_19:\n      pop\n      tag_20\n      tag_21\n      jump\t// in\n    tag_20:\n      mload(0x40)\n      tag_22\n      swap2\n      swap1\n      tag_23\n      jump\t// in\n    tag_22:\n      mload(0x40)\n      dup1\n      swap2\n      sub\n      swap1\n      return\n        /* \"src/contract/donate.sol\":246:270  uint256 public fee = 100 */\n    tag_5:\n      callvalue\n      dup1\n      iszero\n      tag_24\n      jumpi\n      revert(0x00, 0x00)\n    tag_24:\n      pop\n      tag_25\n      tag_26\n      jump\t// in\n    tag_25:\n      mload(0x40)\n      tag_27\n      swap2\n      swap1\n      tag_23\n      jump\t// in\n    tag_27:\n      mload(0x40)\n      dup1\n      swap2\n      sub\n      swap1\n      return\n        /* \"src/contract/donate.sol\":361:831  function addCampaign(string calldata title, string calldata description, string calldata videoUrl, string calldata imgUrl) public{... */\n    tag_6:\n      callvalue\n      dup1\n      iszero\n      tag_28\n      jumpi\n      revert(0x00, 0x00)\n    tag_28:\n      pop\n      tag_29\n      0x04\n      dup1\n      calldatasize\n      sub\n      dup2\n      add\n      swap1\n      tag_30\n      swap2\n      swap1\n      tag_31\n      jump\t// in\n    tag_30:\n      tag_32\n      jump\t// in\n    tag_29:\n      stop\n        /* \"src/contract/donate.sol\":837:1084  function donate(uint256 id) public payable{... */\n    tag_7:\n      tag_33\n      0x04\n      dup1\n      calldatasize\n      sub\n      dup2\n      add\n      swap1\n      tag_34\n      swap2\n      swap1\n      tag_11\n      jump\t// in\n    tag_34:\n      tag_35\n      jump\t// in\n    tag_33:\n      stop\n        /* \"src/contract/donate.sol\":1090:1786  function withdraw(uint256 id) public{... */\n    tag_12:\n        /* \"src/contract/donate.sol\":1136:1160  Campaign memory campaign */\n      0x00\n        /* \"src/contract/donate.sol\":1163:1172  Campaigns */\n      0x02\n        /* \"src/contract/donate.sol\":1163:1176  Campaigns[id] */\n      0x00\n        /* \"src/contract/donate.sol\":1173:1175  id */\n      dup4\n        /* \"src/contract/donate.sol\":1163:1176  Campaigns[id] */\n      dup2\n      mstore\n      0x20\n      add\n      swap1\n      dup2\n      mstore\n      0x20\n      add\n      0x00\n      keccak256\n        /* \"src/contract/donate.sol\":1136:1176  Campaign memory campaign = Campaigns[id] */\n      mload(0x40)\n      dup1\n      0xe0\n      add\n      0x40\n      mstore\n      swap1\n      dup2\n      0x00\n      dup3\n      add\n      0x00\n      swap1\n      sload\n      swap1\n      0x0100\n      exp\n      swap1\n      div\n      0xffffffffffffffffffffffffffffffffffffffff\n      and\n      0xffffffffffffffffffffffffffffffffffffffff\n      and\n      0xffffffffffffffffffffffffffffffffffffffff\n      and\n      dup2\n      mstore\n      0x20\n      add\n      0x01\n      dup3\n      add\n      dup1\n      sload\n      tag_37\n      swap1\n      tag_38\n      jump\t// in\n    tag_37:\n      dup1\n      0x1f\n      add\n      0x20\n      dup1\n      swap2\n      div\n      mul\n      0x20\n      add\n      mload(0x40)\n      swap1\n      dup2\n      add\n      0x40\n      mstore\n      dup1\n      swap3\n      swap2\n      swap1\n      dup2\n      dup2\n      mstore\n      0x20\n      add\n      dup3\n      dup1\n      sload\n      tag_39\n      swap1\n      tag_38\n      jump\t// in\n    tag_39:\n      dup1\n      iszero\n      tag_40\n      jumpi\n      dup1\n      0x1f\n      lt\n      tag_41\n      jumpi\n      0x0100\n      dup1\n      dup4\n      sload\n      div\n      mul\n      dup4\n      mstore\n      swap2\n      0x20\n      add\n      swap2\n      jump(tag_40)\n    tag_41:\n      dup3\n      add\n      swap2\n      swap1\n      0x00\n      mstore\n      keccak256(0x00, 0x20)\n      swap1\n    tag_42:\n      dup2\n      sload\n      dup2\n      mstore\n      swap1\n      0x01\n      add\n      swap1\n      0x20\n      add\n      dup1\n      dup4\n      gt\n      tag_42\n      jumpi\n      dup3\n      swap1\n      sub\n      0x1f\n      and\n      dup3\n      add\n      swap2\n    tag_40:\n      pop\n      pop\n      pop\n      pop\n      pop\n      dup2\n      mstore\n      0x20\n      add\n      0x02\n      dup3\n      add\n      dup1\n      sload\n      tag_43\n      swap1\n      tag_38\n      jump\t// in\n    tag_43:\n      dup1\n      0x1f\n      add\n      0x20\n      dup1\n      swap2\n      div\n      mul\n      0x20\n      add\n      mload(0x40)\n      swap1\n      dup2\n      add\n      0x40\n      mstore\n      dup1\n      swap3\n      swap2\n      swap1\n      dup2\n      dup2\n      mstore\n      0x20\n      add\n      dup3\n      dup1\n      sload\n      tag_44\n      swap1\n      tag_38\n      jump\t// in\n    tag_44:\n      dup1\n      iszero\n      tag_45\n      jumpi\n      dup1\n      0x1f\n      lt\n      tag_46\n      jumpi\n      0x0100\n      dup1\n      dup4\n      sload\n      div\n      mul\n      dup4\n      mstore\n      swap2\n      0x20\n      add\n      swap2\n      jump(tag_45)\n    tag_46:\n      dup3\n      add\n      swap2\n      swap1\n      0x00\n      mstore\n      keccak256(0x00, 0x20)\n      swap1\n    tag_47:\n      dup2\n      sload\n      dup2\n      mstore\n      swap1\n      0x01\n      add\n      swap1\n      0x20\n      add\n      dup1\n      dup4\n      gt\n      tag_47\n      jumpi\n      dup3\n      swap1\n      sub\n      0x1f\n      and\n      dup3\n      add\n      swap2\n    tag_45:\n      pop\n      pop\n      pop\n      pop\n      pop\n      dup2\n      mstore\n      0x20\n      add\n      0x03\n      dup3\n      add\n      dup1\n      sload\n      tag_48\n      swap1\n      tag_38\n      jump\t// in\n    tag_48:\n      dup1\n      0x1f\n      add\n      0x20\n      dup1\n      swap2\n      div\n      mul\n      0x20\n      add\n      mload(0x40)\n      swap1\n      dup2\n      add\n      0x40\n      mstore\n      dup1\n      swap3\n      swap2\n      swap1\n      dup2\n      dup2\n      mstore\n      0x20\n      add\n      dup3\n      dup1\n      sload\n      tag_49\n      swap1\n      tag_38\n      jump\t// in\n    tag_49:\n      dup1\n      iszero\n      tag_50\n      jumpi\n      dup1\n      0x1f\n      lt\n      tag_51\n      jumpi\n      0x0100\n      dup1\n      dup4\n      sload\n      div\n      mul\n      dup4\n      mstore\n      swap2\n      0x20\n      add\n      swap2\n      jump(tag_50)\n    tag_51:\n      dup3\n      add\n      swap2\n      swap1\n      0x00\n      mstore\n      keccak256(0x00, 0x20)\n      swap1\n    tag_52:\n      dup2\n      sload\n      dup2\n      mstore\n      swap1\n      0x01\n      add\n      swap1\n      0x20\n      add\n      dup1\n      dup4\n      gt\n      tag_52\n      jumpi\n      dup3\n      swap1\n      sub\n      0x1f\n      and\n      dup3\n      add\n      swap2\n    tag_50:\n      pop\n      pop\n      pop\n      pop\n      pop\n      dup2\n      mstore\n      0x20\n      add\n      0x04\n      dup3\n      add\n      dup1\n      sload\n      tag_53\n      swap1\n      tag_38\n      jump\t// in\n    tag_53:\n      dup1\n      0x1f\n      add\n      0x20\n      dup1\n      swap2\n      div\n      mul\n      0x20\n      add\n      mload(0x40)\n      swap1\n      dup2\n      add\n      0x40\n      mstore\n      dup1\n      swap3\n      swap2\n      swap1\n      dup2\n      dup2\n      mstore\n      0x20\n      add\n      dup3\n      dup1\n      sload\n      tag_54\n      swap1\n      tag_38\n      jump\t// in\n    tag_54:\n      dup1\n      iszero\n      tag_55\n      jumpi\n      dup1\n      0x1f\n      lt\n      tag_56\n      jumpi\n      0x0100\n      dup1\n      dup4\n      sload\n      div\n      mul\n      dup4\n      mstore\n      swap2\n      0x20\n      add\n      swap2\n      jump(tag_55)\n    tag_56:\n      dup3\n      add\n      swap2\n      swap1\n      0x00\n      mstore\n      keccak256(0x00, 0x20)\n      swap1\n    tag_57:\n      dup2\n      sload\n      dup2\n      mstore\n      swap1\n      0x01\n      add\n      swap1\n      0x20\n      add\n      dup1\n      dup4\n      gt\n      tag_57\n      jumpi\n      dup3\n      swap1\n      sub\n      0x1f\n      and\n      dup3\n      add\n      swap2\n    tag_55:\n      pop\n      pop\n      pop\n      pop\n      pop\n      dup2\n      mstore\n      0x20\n      add\n      0x05\n      dup3\n      add\n      sload\n      dup2\n      mstore\n      0x20\n      add\n      0x06\n      dup3\n      add\n      0x00\n      swap1\n      sload\n      swap1\n      0x0100\n      exp\n      swap1\n      div\n      0xff\n      and\n      iszero\n      iszero\n      iszero\n      iszero\n      dup2\n      mstore\n      pop\n      pop\n      swap1\n      pop\n        /* \"src/contract/donate.sol\":1213:1223  msg.sender */\n      caller\n        /* \"src/contract/donate.sol\":1194:1223  campaign.author == msg.sender */\n      0xffffffffffffffffffffffffffffffffffffffff\n      and\n        /* \"src/contract/donate.sol\":1194:1202  campaign */\n      dup2\n        /* \"src/contract/donate.sol\":1194:1209  campaign.author */\n      0x00\n      add\n      mload\n        /* \"src/contract/donate.sol\":1194:1223  campaign.author == msg.sender */\n      0xffffffffffffffffffffffffffffffffffffffff\n      and\n      eq\n        /* \"src/contract/donate.sol\":1186:1253  require(campaign.author == msg.sender, \"You do not have permition\") */\n      tag_58\n      jumpi\n      mload(0x40)\n      0x08c379a000000000000000000000000000000000000000000000000000000000\n      dup2\n      mstore\n      0x04\n      add\n      tag_59\n      swap1\n      tag_60\n      jump\t// in\n    tag_59:\n      mload(0x40)\n      dup1\n      swap2\n      sub\n      swap1\n      revert\n    tag_58:\n        /* \"src/contract/donate.sol\":1290:1294  true */\n      0x01\n        /* \"src/contract/donate.sol\":1271:1294  campaign.active == true */\n      iszero\n      iszero\n        /* \"src/contract/donate.sol\":1271:1279  campaign */\n      dup2\n        /* \"src/contract/donate.sol\":1271:1286  campaign.active */\n      0xc0\n      add\n      mload\n        /* \"src/contract/donate.sol\":1271:1294  campaign.active == true */\n      iszero\n      iszero\n      eq\n        /* \"src/contract/donate.sol\":1263:1322  require(campaign.active == true, \"this campaign is closed\") */\n      tag_61\n      jumpi\n      mload(0x40)\n      0x08c379a000000000000000000000000000000000000000000000000000000000\n      dup2\n      mstore\n      0x04\n      add\n      tag_62\n      swap1\n      tag_63\n      jump\t// in\n    tag_62:\n      mload(0x40)\n      dup1\n      swap2\n      sub\n      swap1\n      revert\n    tag_61:\n        /* \"src/contract/donate.sol\":1359:1362  fee */\n      sload(0x00)\n        /* \"src/contract/donate.sol\":1340:1348  campaign */\n      dup2\n        /* \"src/contract/donate.sol\":1340:1356  campaign.balance */\n      0xa0\n      add\n      mload\n        /* \"src/contract/donate.sol\":1340:1362  campaign.balance > fee */\n      gt\n        /* \"src/contract/donate.sol\":1332:1408  require(campaign.balance > fee, \"this campaign dos not have enough balance\") */\n      tag_64\n      jumpi\n      mload(0x40)\n      0x08c379a000000000000000000000000000000000000000000000000000000000\n      dup2\n      mstore\n      0x04\n      add\n      tag_65\n      swap1\n      tag_66\n      jump\t// in\n    tag_65:\n      mload(0x40)\n      dup1\n      swap2\n      sub\n      swap1\n      revert\n    tag_64:\n        /* \"src/contract/donate.sol\":1419:1444  uint256 ammountToWithdraw */\n      0x00\n        /* \"src/contract/donate.sol\":1465:1468  fee */\n      sload(0x00)\n        /* \"src/contract/donate.sol\":1447:1455  campaign */\n      dup3\n        /* \"src/contract/donate.sol\":1447:1463  campaign.balance */\n      0xa0\n      add\n      mload\n        /* \"src/contract/donate.sol\":1447:1468  campaign.balance -fee */\n      tag_67\n      swap2\n      swap1\n      tag_68\n      jump\t// in\n    tag_67:\n        /* \"src/contract/donate.sol\":1419:1468  uint256 ammountToWithdraw = campaign.balance -fee */\n      swap1\n      pop\n        /* \"src/contract/donate.sol\":1560:1565  false */\n      0x00\n        /* \"src/contract/donate.sol\":1542:1550  campaign */\n      dup3\n        /* \"src/contract/donate.sol\":1542:1557  campaign.active */\n      0xc0\n      add\n        /* \"src/contract/donate.sol\":1542:1565  campaign.active = false */\n      swap1\n      iszero\n      iszero\n      swap1\n      dup2\n      iszero\n      iszero\n      dup2\n      mstore\n      pop\n      pop\n        /* \"src/contract/donate.sol\":1594:1595  0 */\n      0x00\n        /* \"src/contract/donate.sol\":1575:1583  campaign */\n      dup3\n        /* \"src/contract/donate.sol\":1575:1591  campaign.balance */\n      0xa0\n      add\n        /* \"src/contract/donate.sol\":1575:1595  campaign.balance = 0 */\n      dup2\n      dup2\n      mstore\n      pop\n      pop\n        /* \"src/contract/donate.sol\":1607:1619  bool success */\n      0x00\n        /* \"src/contract/donate.sol\":1633:1641  campaign */\n      dup3\n        /* \"src/contract/donate.sol\":1633:1648  campaign.author */\n      0x00\n      add\n      mload\n        /* \"src/contract/donate.sol\":1625:1654  payable(campaign.author).call */\n      0xffffffffffffffffffffffffffffffffffffffff\n      and\n        /* \"src/contract/donate.sol\":1662:1679  ammountToWithdraw */\n      dup3\n        /* \"src/contract/donate.sol\":1625:1684  payable(campaign.author).call{value: ammountToWithdraw}(\"\") */\n      mload(0x40)\n      tag_69\n      swap1\n      tag_70\n      jump\t// in\n    tag_69:\n      0x00\n      mload(0x40)\n      dup1\n      dup4\n      sub\n      dup2\n      dup6\n      dup8\n      gas\n      call\n      swap3\n      pop\n      pop\n      pop\n      returndatasize\n      dup1\n      0x00\n      dup2\n      eq\n      tag_73\n      jumpi\n      mload(0x40)\n      swap2\n      pop\n      and(add(returndatasize, 0x3f), not(0x1f))\n      dup3\n      add\n      0x40\n      mstore\n      returndatasize\n      dup3\n      mstore\n      returndatasize\n      0x00\n      0x20\n      dup5\n      add\n      returndatacopy\n      jump(tag_72)\n    tag_73:\n      0x60\n      swap2\n      pop\n    tag_72:\n      pop\n        /* \"src/contract/donate.sol\":1606:1684  (bool success, ) = payable(campaign.author).call{value: ammountToWithdraw}(\"\") */\n      pop\n      swap1\n      pop\n        /* \"src/contract/donate.sol\":1704:1711  success */\n      dup1\n        /* \"src/contract/donate.sol\":1695:1738  require (success, \"Falha na transferencia\") */\n      tag_74\n      jumpi\n      mload(0x40)\n      0x08c379a000000000000000000000000000000000000000000000000000000000\n      dup2\n      mstore\n      0x04\n      add\n      tag_75\n      swap1\n      tag_76\n      jump\t// in\n    tag_75:\n      mload(0x40)\n      dup1\n      swap2\n      sub\n      swap1\n      revert\n    tag_74:\n        /* \"src/contract/donate.sol\":1126:1786  {... */\n      pop\n      pop\n      pop\n        /* \"src/contract/donate.sol\":1090:1786  function withdraw(uint256 id) public{... */\n      pop\n      jump\t// out\n        /* \"src/contract/donate.sol\":308:354  mapping (uint256 => Campaign) public Campaigns */\n    tag_16:\n      mstore(0x20, 0x02)\n      dup1\n      0x00\n      mstore\n      keccak256(0x00, 0x40)\n      0x00\n      swap2\n      pop\n      swap1\n      pop\n      dup1\n      0x00\n      add\n      0x00\n      swap1\n      sload\n      swap1\n      0x0100\n      exp\n      swap1\n      div\n      0xffffffffffffffffffffffffffffffffffffffff\n      and\n      swap1\n      dup1\n      0x01\n      add\n      dup1\n      sload\n      tag_77\n      swap1\n      tag_38\n      jump\t// in\n    tag_77:\n      dup1\n      0x1f\n      add\n      0x20\n      dup1\n      swap2\n      div\n      mul\n      0x20\n      add\n      mload(0x40)\n      swap1\n      dup2\n      add\n      0x40\n      mstore\n      dup1\n      swap3\n      swap2\n      swap1\n      dup2\n      dup2\n      mstore\n      0x20\n      add\n      dup3\n      dup1\n      sload\n      tag_78\n      swap1\n      tag_38\n      jump\t// in\n    tag_78:\n      dup1\n      iszero\n      tag_79\n      jumpi\n      dup1\n      0x1f\n      lt\n      tag_80\n      jumpi\n      0x0100\n      dup1\n      dup4\n      sload\n      div\n      mul\n      dup4\n      mstore\n      swap2\n      0x20\n      add\n      swap2\n      jump(tag_79)\n    tag_80:\n      dup3\n      add\n      swap2\n      swap1\n      0x00\n      mstore\n      keccak256(0x00, 0x20)\n      swap1\n    tag_81:\n      dup2\n      sload\n      dup2\n      mstore\n      swap1\n      0x01\n      add\n      swap1\n      0x20\n      add\n      dup1\n      dup4\n      gt\n      tag_81\n      jumpi\n      dup3\n      swap1\n      sub\n      0x1f\n      and\n      dup3\n      add\n      swap2\n    tag_79:\n      pop\n      pop\n      pop\n      pop\n      pop\n      swap1\n      dup1\n      0x02\n      add\n      dup1\n      sload\n      tag_82\n      swap1\n      tag_38\n      jump\t// in\n    tag_82:\n      dup1\n      0x1f\n      add\n      0x20\n      dup1\n      swap2\n      div\n      mul\n      0x20\n      add\n      mload(0x40)\n      swap1\n      dup2\n      add\n      0x40\n      mstore\n      dup1\n      swap3\n      swap2\n      swap1\n      dup2\n      dup2\n      mstore\n      0x20\n      add\n      dup3\n      dup1\n      sload\n      tag_83\n      swap1\n      tag_38\n      jump\t// in\n    tag_83:\n      dup1\n      iszero\n      tag_84\n      jumpi\n      dup1\n      0x1f\n      lt\n      tag_85\n      jumpi\n      0x0100\n      dup1\n      dup4\n      sload\n      div\n      mul\n      dup4\n      mstore\n      swap2\n      0x20\n      add\n      swap2\n      jump(tag_84)\n    tag_85:\n      dup3\n      add\n      swap2\n      swap1\n      0x00\n      mstore\n      keccak256(0x00, 0x20)\n      swap1\n    tag_86:\n      dup2\n      sload\n      dup2\n      mstore\n      swap1\n      0x01\n      add\n      swap1\n      0x20\n      add\n      dup1\n      dup4\n      gt\n      tag_86\n      jumpi\n      dup3\n      swap1\n      sub\n      0x1f\n      and\n      dup3\n      add\n      swap2\n    tag_84:\n      pop\n      pop\n      pop\n      pop\n      pop\n      swap1\n      dup1\n      0x03\n      add\n      dup1\n      sload\n      tag_87\n      swap1\n      tag_38\n      jump\t// in\n    tag_87:\n      dup1\n      0x1f\n      add\n      0x20\n      dup1\n      swap2\n      div\n      mul\n      0x20\n      add\n      mload(0x40)\n      swap1\n      dup2\n      add\n      0x40\n      mstore\n      dup1\n      swap3\n      swap2\n      swap1\n      dup2\n      dup2\n      mstore\n      0x20\n      add\n      dup3\n      dup1\n      sload\n      tag_88\n      swap1\n      tag_38\n      jump\t// in\n    tag_88:\n      dup1\n      iszero\n      tag_89\n      jumpi\n      dup1\n      0x1f\n      lt\n      tag_90\n      jumpi\n      0x0100\n      dup1\n      dup4\n      sload\n      div\n      mul\n      dup4\n      mstore\n      swap2\n      0x20\n      add\n      swap2\n      jump(tag_89)\n    tag_90:\n      dup3\n      add\n      swap2\n      swap1\n      0x00\n      mstore\n      keccak256(0x00, 0x20)\n      swap1\n    tag_91:\n      dup2\n      sload\n      dup2\n      mstore\n      swap1\n      0x01\n      add\n      swap1\n      0x20\n      add\n      dup1\n      dup4\n      gt\n      tag_91\n      jumpi\n      dup3\n      swap1\n      sub\n      0x1f\n      and\n      dup3\n      add\n      swap2\n    tag_89:\n      pop\n      pop\n      pop\n      pop\n      pop\n      swap1\n      dup1\n      0x04\n      add\n      dup1\n      sload\n      tag_92\n      swap1\n      tag_38\n      jump\t// in\n    tag_92:\n      dup1\n      0x1f\n      add\n      0x20\n      dup1\n      swap2\n      div\n      mul\n      0x20\n      add\n      mload(0x40)\n      swap1\n      dup2\n      add\n      0x40\n      mstore\n      dup1\n      swap3\n      swap2\n      swap1\n      dup2\n      dup2\n      mstore\n      0x20\n      add\n      dup3\n      dup1\n      sload\n      tag_93\n      swap1\n      tag_38\n      jump\t// in\n    tag_93:\n      dup1\n      iszero\n      tag_94\n      jumpi\n      dup1\n      0x1f\n      lt\n      tag_95\n      jumpi\n      0x0100\n      dup1\n      dup4\n      sload\n      div\n      mul\n      dup4\n      mstore\n      swap2\n      0x20\n      add\n      swap2\n      jump(tag_94)\n    tag_95:\n      dup3\n      add\n      swap2\n      swap1\n      0x00\n      mstore\n      keccak256(0x00, 0x20)\n      swap1\n    tag_96:\n      dup2\n      sload\n      dup2\n      mstore\n      swap1\n      0x01\n      add\n      swap1\n      0x20\n      add\n      dup1\n      dup4\n      gt\n      tag_96\n      jumpi\n      dup3\n      swap1\n      sub\n      0x1f\n      and\n      dup3\n      add\n      swap2\n    tag_94:\n      pop\n      pop\n      pop\n      pop\n      pop\n      swap1\n      dup1\n      0x05\n      add\n      sload\n      swap1\n      dup1\n      0x06\n      add\n      0x00\n      swap1\n      sload\n      swap1\n      0x0100\n      exp\n      swap1\n      div\n      0xff\n      and\n      swap1\n      pop\n      dup8\n      jump\t// out\n        /* \"src/contract/donate.sol\":276:301  uint256 public nextId = 0 */\n    tag_21:\n      sload(0x01)\n      dup2\n      jump\t// out\n        /* \"src/contract/donate.sol\":246:270  uint256 public fee = 100 */\n    tag_26:\n      sload(0x00)\n      dup2\n      jump\t// out\n        /* \"src/contract/donate.sol\":361:831  function addCampaign(string calldata title, string calldata description, string calldata videoUrl, string calldata imgUrl) public{... */\n    tag_32:\n        /* \"src/contract/donate.sol\":500:527  Campaign memory newCampaign */\n      tag_98\n      tag_99\n      jump\t// in\n    tag_98:\n        /* \"src/contract/donate.sol\":557:562  title */\n      dup9\n      dup9\n        /* \"src/contract/donate.sol\":537:562  newCampaign.title = title */\n      dup1\n      dup1\n      0x1f\n      add\n      0x20\n      dup1\n      swap2\n      div\n      mul\n      0x20\n      add\n      mload(0x40)\n      swap1\n      dup2\n      add\n      0x40\n      mstore\n      dup1\n      swap4\n      swap3\n      swap2\n      swap1\n      dup2\n      dup2\n      mstore\n      0x20\n      add\n      dup4\n      dup4\n      dup1\n      dup3\n      dup5\n      calldatacopy\n      0x00\n      dup2\n      dup5\n      add\n      mstore\n      not(0x1f)\n      0x1f\n      dup3\n      add\n      and\n      swap1\n      pop\n      dup1\n      dup4\n      add\n      swap3\n      pop\n      pop\n      pop\n      pop\n      pop\n      pop\n      pop\n        /* \"src/contract/donate.sol\":537:548  newCampaign */\n      dup2\n        /* \"src/contract/donate.sol\":537:554  newCampaign.title */\n      0x20\n      add\n        /* \"src/contract/donate.sol\":537:562  newCampaign.title = title */\n      dup2\n      swap1\n      mstore\n      pop\n        /* \"src/contract/donate.sol\":598:609  description */\n      dup7\n      dup7\n        /* \"src/contract/donate.sol\":572:609  newCampaign.description = description */\n      dup1\n      dup1\n      0x1f\n      add\n      0x20\n      dup1\n      swap2\n      div\n      mul\n      0x20\n      add\n      mload(0x40)\n      swap1\n      dup2\n      add\n      0x40\n      mstore\n      dup1\n      swap4\n      swap3\n      swap2\n      swap1\n      dup2\n      dup2\n      mstore\n      0x20\n      add\n      dup4\n      dup4\n      dup1\n      dup3\n      dup5\n      calldatacopy\n      0x00\n      dup2\n      dup5\n      add\n      mstore\n      not(0x1f)\n      0x1f\n      dup3\n      add\n      and\n      swap1\n      pop\n      dup1\n      dup4\n      add\n      swap3\n      pop\n      pop\n      pop\n      pop\n      pop\n      pop\n      pop\n        /* \"src/contract/donate.sol\":572:583  newCampaign */\n      dup2\n        /* \"src/contract/donate.sol\":572:595  newCampaign.description */\n      0x40\n      add\n        /* \"src/contract/donate.sol\":572:609  newCampaign.description = description */\n      dup2\n      swap1\n      mstore\n      pop\n        /* \"src/contract/donate.sol\":642:650  videoUrl */\n      dup5\n      dup5\n        /* \"src/contract/donate.sol\":619:650  newCampaign.videoUrl = videoUrl */\n      dup1\n      dup1\n      0x1f\n      add\n      0x20\n      dup1\n      swap2\n      div\n      mul\n      0x20\n      add\n      mload(0x40)\n      swap1\n      dup2\n      add\n      0x40\n      mstore\n      dup1\n      swap4\n      swap3\n      swap2\n      swap1\n      dup2\n      dup2\n      mstore\n      0x20\n      add\n      dup4\n      dup4\n      dup1\n      dup3\n      dup5\n      calldatacopy\n      0x00\n      dup2\n      dup5\n      add\n      mstore\n      not(0x1f)\n      0x1f\n      dup3\n      add\n      and\n      swap1\n      pop\n      dup1\n      dup4\n      add\n      swap3\n      pop\n      pop\n      pop\n      pop\n      pop\n      pop\n      pop\n        /* \"src/contract/donate.sol\":619:630  newCampaign */\n      dup2\n        /* \"src/contract/donate.sol\":619:639  newCampaign.videoUrl */\n      0x60\n      add\n        /* \"src/contract/donate.sol\":619:650  newCampaign.videoUrl = videoUrl */\n      dup2\n      swap1\n      mstore\n      pop\n        /* \"src/contract/donate.sol\":681:687  imgUrl */\n      dup3\n      dup3\n        /* \"src/contract/donate.sol\":660:687  newCampaign.imgUrl = imgUrl */\n      dup1\n      dup1\n      0x1f\n      add\n      0x20\n      dup1\n      swap2\n      div\n      mul\n      0x20\n      add\n      mload(0x40)\n      swap1\n      dup2\n      add\n      0x40\n      mstore\n      dup1\n      swap4\n      swap3\n      swap2\n      swap1\n      dup2\n      dup2\n      mstore\n      0x20\n      add\n      dup4\n      dup4\n      dup1\n      dup3\n      dup5\n      calldatacopy\n      0x00\n      dup2\n      dup5\n      add\n      mstore\n      not(0x1f)\n      0x1f\n      dup3\n      add\n      and\n      swap1\n      pop\n      dup1\n      dup4\n      add\n      swap3\n      pop\n      pop\n      pop\n      pop\n      pop\n      pop\n      pop\n        /* \"src/contract/donate.sol\":660:671  newCampaign */\n      dup2\n        /* \"src/contract/donate.sol\":660:678  newCampaign.imgUrl */\n      0x80\n      add\n        /* \"src/contract/donate.sol\":660:687  newCampaign.imgUrl = imgUrl */\n      dup2\n      swap1\n      mstore\n      pop\n        /* \"src/contract/donate.sol\":718:722  true */\n      0x01\n        /* \"src/contract/donate.sol\":697:708  newCampaign */\n      dup2\n        /* \"src/contract/donate.sol\":697:715  newCampaign.active */\n      0xc0\n      add\n        /* \"src/contract/donate.sol\":697:722  newCampaign.active = true */\n      swap1\n      iszero\n      iszero\n      swap1\n      dup2\n      iszero\n      iszero\n      dup2\n      mstore\n      pop\n      pop\n        /* \"src/contract/donate.sol\":753:763  msg.sender */\n      caller\n        /* \"src/contract/donate.sol\":732:743  newCampaign */\n      dup2\n        /* \"src/contract/donate.sol\":732:750  newCampaign.author */\n      0x00\n      add\n        /* \"src/contract/donate.sol\":732:763  newCampaign.author = msg.sender */\n      swap1\n      0xffffffffffffffffffffffffffffffffffffffff\n      and\n      swap1\n      dup2\n      0xffffffffffffffffffffffffffffffffffffffff\n      and\n      dup2\n      mstore\n      pop\n      pop\n        /* \"src/contract/donate.sol\":774:780  nextId */\n      0x01\n      0x00\n        /* \"src/contract/donate.sol\":774:782  nextId++ */\n      dup2\n      sload\n      dup1\n      swap3\n      swap2\n      swap1\n      tag_100\n      swap1\n      tag_101\n      jump\t// in\n    tag_100:\n      swap2\n      swap1\n      pop\n      sstore\n      pop\n        /* \"src/contract/donate.sol\":812:823  newCampaign */\n      dup1\n        /* \"src/contract/donate.sol\":792:801  Campaigns */\n      0x02\n        /* \"src/contract/donate.sol\":792:809  Campaigns[nextId] */\n      0x00\n        /* \"src/contract/donate.sol\":802:808  nextId */\n      sload(0x01)\n        /* \"src/contract/donate.sol\":792:809  Campaigns[nextId] */\n      dup2\n      mstore\n      0x20\n      add\n      swap1\n      dup2\n      mstore\n      0x20\n      add\n      0x00\n      keccak256\n        /* \"src/contract/donate.sol\":792:823  Campaigns[nextId] = newCampaign */\n      0x00\n      dup3\n      add\n      mload\n      dup2\n      0x00\n      add\n      exp(0x0100, 0x00)\n      dup2\n      sload\n      dup2\n      0xffffffffffffffffffffffffffffffffffffffff\n      mul\n      not\n      and\n      swap1\n      dup4\n      0xffffffffffffffffffffffffffffffffffffffff\n      and\n      mul\n      or\n      swap1\n      sstore\n      pop\n      0x20\n      dup3\n      add\n      mload\n      dup2\n      0x01\n      add\n      swap1\n      dup2\n      tag_102\n      swap2\n      swap1\n      tag_103\n      jump\t// in\n    tag_102:\n      pop\n      0x40\n      dup3\n      add\n      mload\n      dup2\n      0x02\n      add\n      swap1\n      dup2\n      tag_104\n      swap2\n      swap1\n      tag_103\n      jump\t// in\n    tag_104:\n      pop\n      0x60\n      dup3\n      add\n      mload\n      dup2\n      0x03\n      add\n      swap1\n      dup2\n      tag_105\n      swap2\n      swap1\n      tag_103\n      jump\t// in\n    tag_105:\n      pop\n      0x80\n      dup3\n      add\n      mload\n      dup2\n      0x04\n      add\n      swap1\n      dup2\n      tag_106\n      swap2\n      swap1\n      tag_103\n      jump\t// in\n    tag_106:\n      pop\n      0xa0\n      dup3\n      add\n      mload\n      dup2\n      0x05\n      add\n      sstore\n      0xc0\n      dup3\n      add\n      mload\n      dup2\n      0x06\n      add\n      exp(0x0100, 0x00)\n      dup2\n      sload\n      dup2\n      0xff\n      mul\n      not\n      and\n      swap1\n      dup4\n      iszero\n      iszero\n      mul\n      or\n      swap1\n      sstore\n      pop\n      swap1\n      pop\n      pop\n        /* \"src/contract/donate.sol\":490:831  {... */\n      pop\n        /* \"src/contract/donate.sol\":361:831  function addCampaign(string calldata title, string calldata description, string calldata videoUrl, string calldata imgUrl) public{... */\n      pop\n      pop\n      pop\n      pop\n      pop\n      pop\n      pop\n      pop\n      jump\t// out\n        /* \"src/contract/donate.sol\":837:1084  function donate(uint256 id) public payable{... */\n    tag_35:\n        /* \"src/contract/donate.sol\":909:910  0 */\n      0x00\n        /* \"src/contract/donate.sol\":897:906  msg.value */\n      callvalue\n        /* \"src/contract/donate.sol\":897:910  msg.value > 0 */\n      gt\n        /* \"src/contract/donate.sol\":889:950  require(msg.value > 0, \"you must send a donatioon valor > 0\") */\n      tag_108\n      jumpi\n      mload(0x40)\n      0x08c379a000000000000000000000000000000000000000000000000000000000\n      dup2\n      mstore\n      0x04\n      add\n      tag_109\n      swap1\n      tag_110\n      jump\t// in\n    tag_109:\n      mload(0x40)\n      dup1\n      swap2\n      sub\n      swap1\n      revert\n    tag_108:\n        /* \"src/contract/donate.sol\":992:996  true */\n      0x01\n        /* \"src/contract/donate.sol\":968:996  Campaigns[id].active == true */\n      iszero\n      iszero\n        /* \"src/contract/donate.sol\":968:977  Campaigns */\n      0x02\n        /* \"src/contract/donate.sol\":968:981  Campaigns[id] */\n      0x00\n        /* \"src/contract/donate.sol\":978:980  id */\n      dup4\n        /* \"src/contract/donate.sol\":968:981  Campaigns[id] */\n      dup2\n      mstore\n      0x20\n      add\n      swap1\n      dup2\n      mstore\n      0x20\n      add\n      0x00\n      keccak256\n        /* \"src/contract/donate.sol\":968:988  Campaigns[id].active */\n      0x06\n      add\n      0x00\n      swap1\n      sload\n      swap1\n      0x0100\n      exp\n      swap1\n      div\n      0xff\n      and\n        /* \"src/contract/donate.sol\":968:996  Campaigns[id].active == true */\n      iszero\n      iszero\n      eq\n        /* \"src/contract/donate.sol\":960:1031  require(Campaigns[id].active == true, \"Cannot donate to this campaign\") */\n      tag_111\n      jumpi\n      mload(0x40)\n      0x08c379a000000000000000000000000000000000000000000000000000000000\n      dup2\n      mstore\n      0x04\n      add\n      tag_112\n      swap1\n      tag_113\n      jump\t// in\n    tag_112:\n      mload(0x40)\n      dup1\n      swap2\n      sub\n      swap1\n      revert\n    tag_111:\n        /* \"src/contract/donate.sol\":1067:1076  msg.value */\n      callvalue\n        /* \"src/contract/donate.sol\":1042:1051  Campaigns */\n      0x02\n        /* \"src/contract/donate.sol\":1042:1055  Campaigns[id] */\n      0x00\n        /* \"src/contract/donate.sol\":1052:1054  id */\n      dup4\n        /* \"src/contract/donate.sol\":1042:1055  Campaigns[id] */\n      dup2\n      mstore\n      0x20\n      add\n      swap1\n      dup2\n      mstore\n      0x20\n      add\n      0x00\n      keccak256\n        /* \"src/contract/donate.sol\":1042:1063  Campaigns[id].balance */\n      0x05\n      add\n      0x00\n        /* \"src/contract/donate.sol\":1042:1076  Campaigns[id].balance += msg.value */\n      dup3\n      dup3\n      sload\n      tag_114\n      swap2\n      swap1\n      tag_115\n      jump\t// in\n    tag_114:\n      swap3\n      pop\n      pop\n      dup2\n      swap1\n      sstore\n      pop\n        /* \"src/contract/donate.sol\":837:1084  function donate(uint256 id) public payable{... */\n      pop\n      jump\t// out\n    tag_99:\n      mload(0x40)\n      dup1\n      0xe0\n      add\n      0x40\n      mstore\n      dup1\n      and(0xffffffffffffffffffffffffffffffffffffffff, 0x00)\n      dup2\n      mstore\n      0x20\n      add\n      0x60\n      dup2\n      mstore\n      0x20\n      add\n      0x60\n      dup2\n      mstore\n      0x20\n      add\n      0x60\n      dup2\n      mstore\n      0x20\n      add\n      0x60\n      dup2\n      mstore\n      0x20\n      add\n      0x00\n      dup2\n      mstore\n      0x20\n      add\n      iszero(iszero(0x00))\n      dup2\n      mstore\n      pop\n      swap1\n      jump\t// out\n        /* \"#utility.yul\":88:205   */\n    tag_117:\n        /* \"#utility.yul\":197:198   */\n      0x00\n        /* \"#utility.yul\":194:195   */\n      0x00\n        /* \"#utility.yul\":187:199   */\n      revert\n        /* \"#utility.yul\":211:328   */\n    tag_118:\n        /* \"#utility.yul\":320:321   */\n      0x00\n        /* \"#utility.yul\":317:318   */\n      0x00\n        /* \"#utility.yul\":310:322   */\n      revert\n        /* \"#utility.yul\":334:411   */\n    tag_119:\n        /* \"#utility.yul\":371:378   */\n      0x00\n        /* \"#utility.yul\":400:405   */\n      dup2\n        /* \"#utility.yul\":389:405   */\n      swap1\n      pop\n        /* \"#utility.yul\":334:411   */\n      swap2\n      swap1\n      pop\n      jump\t// out\n        /* \"#utility.yul\":417:539   */\n    tag_120:\n        /* \"#utility.yul\":490:514   */\n      tag_176\n        /* \"#utility.yul\":508:513   */\n      dup2\n        /* \"#utility.yul\":490:514   */\n      tag_119\n      jump\t// in\n    tag_176:\n        /* \"#utility.yul\":483:488   */\n      dup2\n        /* \"#utility.yul\":480:515   */\n      eq\n        /* \"#utility.yul\":470:533   */\n      tag_177\n      jumpi\n        /* \"#utility.yul\":529:530   */\n      0x00\n        /* \"#utility.yul\":526:527   */\n      0x00\n        /* \"#utility.yul\":519:531   */\n      revert\n        /* \"#utility.yul\":470:533   */\n    tag_177:\n        /* \"#utility.yul\":417:539   */\n      pop\n      jump\t// out\n        /* \"#utility.yul\":545:684   */\n    tag_121:\n        /* \"#utility.yul\":591:596   */\n      0x00\n        /* \"#utility.yul\":629:635   */\n      dup2\n        /* \"#utility.yul\":616:636   */\n      calldataload\n        /* \"#utility.yul\":607:636   */\n      swap1\n      pop\n        /* \"#utility.yul\":645:678   */\n      tag_179\n        /* \"#utility.yul\":672:677   */\n      dup2\n        /* \"#utility.yul\":645:678   */\n      tag_120\n      jump\t// in\n    tag_179:\n        /* \"#utility.yul\":545:684   */\n      swap3\n      swap2\n      pop\n      pop\n      jump\t// out\n        /* \"#utility.yul\":690:1019   */\n    tag_11:\n        /* \"#utility.yul\":749:755   */\n      0x00\n        /* \"#utility.yul\":798:800   */\n      0x20\n        /* \"#utility.yul\":786:795   */\n      dup3\n        /* \"#utility.yul\":777:784   */\n      dup5\n        /* \"#utility.yul\":773:796   */\n      sub\n        /* \"#utility.yul\":769:801   */\n      slt\n        /* \"#utility.yul\":766:885   */\n      iszero\n      tag_181\n      jumpi\n        /* \"#utility.yul\":804:883   */\n      tag_182\n      tag_117\n      jump\t// in\n    tag_182:\n        /* \"#utility.yul\":766:885   */\n    tag_181:\n        /* \"#utility.yul\":924:925   */\n      0x00\n        /* \"#utility.yul\":949:1002   */\n      tag_183\n        /* \"#utility.yul\":994:1001   */\n      dup5\n        /* \"#utility.yul\":985:991   */\n      dup3\n        /* \"#utility.yul\":974:983   */\n      dup6\n        /* \"#utility.yul\":970:992   */\n      add\n        /* \"#utility.yul\":949:1002   */\n      tag_121\n      jump\t// in\n    tag_183:\n        /* \"#utility.yul\":939:1002   */\n      swap2\n      pop\n        /* \"#utility.yul\":895:1012   */\n      pop\n        /* \"#utility.yul\":690:1019   */\n      swap3\n      swap2\n      pop\n      pop\n      jump\t// out\n        /* \"#utility.yul\":1025:1151   */\n    tag_122:\n        /* \"#utility.yul\":1062:1069   */\n      0x00\n        /* \"#utility.yul\":1102:1144   */\n      0xffffffffffffffffffffffffffffffffffffffff\n        /* \"#utility.yul\":1095:1100   */\n      dup3\n        /* \"#utility.yul\":1091:1145   */\n      and\n        /* \"#utility.yul\":1080:1145   */\n      swap1\n      pop\n        /* \"#utility.yul\":1025:1151   */\n      swap2\n      swap1\n      pop\n      jump\t// out\n        /* \"#utility.yul\":1157:1253   */\n    tag_123:\n        /* \"#utility.yul\":1194:1201   */\n      0x00\n        /* \"#utility.yul\":1223:1247   */\n      tag_186\n        /* \"#utility.yul\":1241:1246   */\n      dup3\n        /* \"#utility.yul\":1223:1247   */\n      tag_122\n      jump\t// in\n    tag_186:\n        /* \"#utility.yul\":1212:1247   */\n      swap1\n      pop\n        /* \"#utility.yul\":1157:1253   */\n      swap2\n      swap1\n      pop\n      jump\t// out\n        /* \"#utility.yul\":1259:1377   */\n    tag_124:\n        /* \"#utility.yul\":1346:1370   */\n      tag_188\n        /* \"#utility.yul\":1364:1369   */\n      dup2\n        /* \"#utility.yul\":1346:1370   */\n      tag_123\n      jump\t// in\n    tag_188:\n        /* \"#utility.yul\":1341:1344   */\n      dup3\n        /* \"#utility.yul\":1334:1371   */\n      mstore\n        /* \"#utility.yul\":1259:1377   */\n      pop\n      pop\n      jump\t// out\n        /* \"#utility.yul\":1383:1482   */\n    tag_125:\n        /* \"#utility.yul\":1435:1441   */\n      0x00\n        /* \"#utility.yul\":1469:1474   */\n      dup2\n        /* \"#utility.yul\":1463:1475   */\n      mload\n        /* \"#utility.yul\":1453:1475   */\n      swap1\n      pop\n        /* \"#utility.yul\":1383:1482   */\n      swap2\n      swap1\n      pop\n      jump\t// out\n        /* \"#utility.yul\":1488:1657   */\n    tag_126:\n        /* \"#utility.yul\":1572:1583   */\n      0x00\n        /* \"#utility.yul\":1606:1612   */\n      dup3\n        /* \"#utility.yul\":1601:1604   */\n      dup3\n        /* \"#utility.yul\":1594:1613   */\n      mstore\n        /* \"#utility.yul\":1646:1650   */\n      0x20\n        /* \"#utility.yul\":1641:1644   */\n      dup3\n        /* \"#utility.yul\":1637:1651   */\n      add\n        /* \"#utility.yul\":1622:1651   */\n      swap1\n      pop\n        /* \"#utility.yul\":1488:1657   */\n      swap3\n      swap2\n      pop\n      pop\n      jump\t// out\n        /* \"#utility.yul\":1663:1802   */\n    tag_127:\n        /* \"#utility.yul\":1752:1758   */\n      dup3\n        /* \"#utility.yul\":1747:1750   */\n      dup2\n        /* \"#utility.yul\":1742:1745   */\n      dup4\n        /* \"#utility.yul\":1736:1759   */\n      mcopy\n        /* \"#utility.yul\":1793:1794   */\n      0x00\n        /* \"#utility.yul\":1784:1790   */\n      dup4\n        /* \"#utility.yul\":1779:1782   */\n      dup4\n        /* \"#utility.yul\":1775:1791   */\n      add\n        /* \"#utility.yul\":1768:1795   */\n      mstore\n        /* \"#utility.yul\":1663:1802   */\n      pop\n      pop\n      pop\n      jump\t// out\n        /* \"#utility.yul\":1808:1910   */\n    tag_128:\n        /* \"#utility.yul\":1849:1855   */\n      0x00\n        /* \"#utility.yul\":1900:1902   */\n      0x1f\n        /* \"#utility.yul\":1896:1903   */\n      not\n        /* \"#utility.yul\":1891:1893   */\n      0x1f\n        /* \"#utility.yul\":1884:1889   */\n      dup4\n        /* \"#utility.yul\":1880:1894   */\n      add\n        /* \"#utility.yul\":1876:1904   */\n      and\n        /* \"#utility.yul\":1866:1904   */\n      swap1\n      pop\n        /* \"#utility.yul\":1808:1910   */\n      swap2\n      swap1\n      pop\n      jump\t// out\n        /* \"#utility.yul\":1916:2293   */\n    tag_129:\n        /* \"#utility.yul\":2004:2007   */\n      0x00\n        /* \"#utility.yul\":2032:2071   */\n      tag_194\n        /* \"#utility.yul\":2065:2070   */\n      dup3\n        /* \"#utility.yul\":2032:2071   */\n      tag_125\n      jump\t// in\n    tag_194:\n        /* \"#utility.yul\":2087:2158   */\n      tag_195\n        /* \"#utility.yul\":2151:2157   */\n      dup2\n        /* \"#utility.yul\":2146:2149   */\n      dup6\n        /* \"#utility.yul\":2087:2158   */\n      tag_126\n      jump\t// in\n    tag_195:\n        /* \"#utility.yul\":2080:2158   */\n      swap4\n      pop\n        /* \"#utility.yul\":2167:2232   */\n      tag_196\n        /* \"#utility.yul\":2225:2231   */\n      dup2\n        /* \"#utility.yul\":2220:2223   */\n      dup6\n        /* \"#utility.yul\":2213:2217   */\n      0x20\n        /* \"#utility.yul\":2206:2211   */\n      dup7\n        /* \"#utility.yul\":2202:2218   */\n      add\n        /* \"#utility.yul\":2167:2232   */\n      tag_127\n      jump\t// in\n    tag_196:\n        /* \"#utility.yul\":2257:2286   */\n      tag_197\n        /* \"#utility.yul\":2279:2285   */\n      dup2\n        /* \"#utility.yul\":2257:2286   */\n      tag_128\n      jump\t// in\n    tag_197:\n        /* \"#utility.yul\":2252:2255   */\n      dup5\n        /* \"#utility.yul\":2248:2287   */\n      add\n        /* \"#utility.yul\":2241:2287   */\n      swap2\n      pop\n        /* \"#utility.yul\":2008:2293   */\n      pop\n        /* \"#utility.yul\":1916:2293   */\n      swap3\n      swap2\n      pop\n      pop\n      jump\t// out\n        /* \"#utility.yul\":2299:2417   */\n    tag_130:\n        /* \"#utility.yul\":2386:2410   */\n      tag_199\n        /* \"#utility.yul\":2404:2409   */\n      dup2\n        /* \"#utility.yul\":2386:2410   */\n      tag_119\n      jump\t// in\n    tag_199:\n        /* \"#utility.yul\":2381:2384   */\n      dup3\n        /* \"#utility.yul\":2374:2411   */\n      mstore\n        /* \"#utility.yul\":2299:2417   */\n      pop\n      pop\n      jump\t// out\n        /* \"#utility.yul\":2423:2513   */\n    tag_131:\n        /* \"#utility.yul\":2457:2464   */\n      0x00\n        /* \"#utility.yul\":2500:2505   */\n      dup2\n        /* \"#utility.yul\":2493:2506   */\n      iszero\n        /* \"#utility.yul\":2486:2507   */\n      iszero\n        /* \"#utility.yul\":2475:2507   */\n      swap1\n      pop\n        /* \"#utility.yul\":2423:2513   */\n      swap2\n      swap1\n      pop\n      jump\t// out\n        /* \"#utility.yul\":2519:2628   */\n    tag_132:\n        /* \"#utility.yul\":2600:2621   */\n      tag_202\n        /* \"#utility.yul\":2615:2620   */\n      dup2\n        /* \"#utility.yul\":2600:2621   */\n      tag_131\n      jump\t// in\n    tag_202:\n        /* \"#utility.yul\":2595:2598   */\n      dup3\n        /* \"#utility.yul\":2588:2622   */\n      mstore\n        /* \"#utility.yul\":2519:2628   */\n      pop\n      pop\n      jump\t// out\n        /* \"#utility.yul\":2634:3872   */\n    tag_18:\n        /* \"#utility.yul\":2969:2973   */\n      0x00\n        /* \"#utility.yul\":3007:3010   */\n      0xe0\n        /* \"#utility.yul\":2996:3005   */\n      dup3\n        /* \"#utility.yul\":2992:3011   */\n      add\n        /* \"#utility.yul\":2984:3011   */\n      swap1\n      pop\n        /* \"#utility.yul\":3021:3092   */\n      tag_204\n        /* \"#utility.yul\":3089:3090   */\n      0x00\n        /* \"#utility.yul\":3078:3087   */\n      dup4\n        /* \"#utility.yul\":3074:3091   */\n      add\n        /* \"#utility.yul\":3065:3071   */\n      dup11\n        /* \"#utility.yul\":3021:3092   */\n      tag_124\n      jump\t// in\n    tag_204:\n        /* \"#utility.yul\":3139:3148   */\n      dup2\n        /* \"#utility.yul\":3133:3137   */\n      dup2\n        /* \"#utility.yul\":3129:3149   */\n      sub\n        /* \"#utility.yul\":3124:3126   */\n      0x20\n        /* \"#utility.yul\":3113:3122   */\n      dup4\n        /* \"#utility.yul\":3109:3127   */\n      add\n        /* \"#utility.yul\":3102:3150   */\n      mstore\n        /* \"#utility.yul\":3167:3245   */\n      tag_205\n        /* \"#utility.yul\":3240:3244   */\n      dup2\n        /* \"#utility.yul\":3231:3237   */\n      dup10\n        /* \"#utility.yul\":3167:3245   */\n      tag_129\n      jump\t// in\n    tag_205:\n        /* \"#utility.yul\":3159:3245   */\n      swap1\n      pop\n        /* \"#utility.yul\":3292:3301   */\n      dup2\n        /* \"#utility.yul\":3286:3290   */\n      dup2\n        /* \"#utility.yul\":3282:3302   */\n      sub\n        /* \"#utility.yul\":3277:3279   */\n      0x40\n        /* \"#utility.yul\":3266:3275   */\n      dup4\n        /* \"#utility.yul\":3262:3280   */\n      add\n        /* \"#utility.yul\":3255:3303   */\n      mstore\n        /* \"#utility.yul\":3320:3398   */\n      tag_206\n        /* \"#utility.yul\":3393:3397   */\n      dup2\n        /* \"#utility.yul\":3384:3390   */\n      dup9\n        /* \"#utility.yul\":3320:3398   */\n      tag_129\n      jump\t// in\n    tag_206:\n        /* \"#utility.yul\":3312:3398   */\n      swap1\n      pop\n        /* \"#utility.yul\":3445:3454   */\n      dup2\n        /* \"#utility.yul\":3439:3443   */\n      dup2\n        /* \"#utility.yul\":3435:3455   */\n      sub\n        /* \"#utility.yul\":3430:3432   */\n      0x60\n        /* \"#utility.yul\":3419:3428   */\n      dup4\n        /* \"#utility.yul\":3415:3433   */\n      add\n        /* \"#utility.yul\":3408:3456   */\n      mstore\n        /* \"#utility.yul\":3473:3551   */\n      tag_207\n        /* \"#utility.yul\":3546:3550   */\n      dup2\n        /* \"#utility.yul\":3537:3543   */\n      dup8\n        /* \"#utility.yul\":3473:3551   */\n      tag_129\n      jump\t// in\n    tag_207:\n        /* \"#utility.yul\":3465:3551   */\n      swap1\n      pop\n        /* \"#utility.yul\":3599:3608   */\n      dup2\n        /* \"#utility.yul\":3593:3597   */\n      dup2\n        /* \"#utility.yul\":3589:3609   */\n      sub\n        /* \"#utility.yul\":3583:3586   */\n      0x80\n        /* \"#utility.yul\":3572:3581   */\n      dup4\n        /* \"#utility.yul\":3568:3587   */\n      add\n        /* \"#utility.yul\":3561:3610   */\n      mstore\n        /* \"#utility.yul\":3627:3705   */\n      tag_208\n        /* \"#utility.yul\":3700:3704   */\n      dup2\n        /* \"#utility.yul\":3691:3697   */\n      dup7\n        /* \"#utility.yul\":3627:3705   */\n      tag_129\n      jump\t// in\n    tag_208:\n        /* \"#utility.yul\":3619:3705   */\n      swap1\n      pop\n        /* \"#utility.yul\":3715:3788   */\n      tag_209\n        /* \"#utility.yul\":3783:3786   */\n      0xa0\n        /* \"#utility.yul\":3772:3781   */\n      dup4\n        /* \"#utility.yul\":3768:3787   */\n      add\n        /* \"#utility.yul\":3759:3765   */\n      dup6\n        /* \"#utility.yul\":3715:3788   */\n      tag_130\n      jump\t// in\n    tag_209:\n        /* \"#utility.yul\":3798:3865   */\n      tag_210\n        /* \"#utility.yul\":3860:3863   */\n      0xc0\n        /* \"#utility.yul\":3849:3858   */\n      dup4\n        /* \"#utility.yul\":3845:3864   */\n      add\n        /* \"#utility.yul\":3836:3842   */\n      dup5\n        /* \"#utility.yul\":3798:3865   */\n      tag_132\n      jump\t// in\n    tag_210:\n        /* \"#utility.yul\":2634:3872   */\n      swap9\n      swap8\n      pop\n      pop\n      pop\n      pop\n      pop\n      pop\n      pop\n      pop\n      jump\t// out\n        /* \"#utility.yul\":3878:4100   */\n    tag_23:\n        /* \"#utility.yul\":3971:3975   */\n      0x00\n        /* \"#utility.yul\":4009:4011   */\n      0x20\n        /* \"#utility.yul\":3998:4007   */\n      dup3\n        /* \"#utility.yul\":3994:4012   */\n      add\n        /* \"#utility.yul\":3986:4012   */\n      swap1\n      pop\n        /* \"#utility.yul\":4022:4093   */\n      tag_212\n        /* \"#utility.yul\":4090:4091   */\n      0x00\n        /* \"#utility.yul\":4079:4088   */\n      dup4\n        /* \"#utility.yul\":4075:4092   */\n      add\n        /* \"#utility.yul\":4066:4072   */\n      dup5\n        /* \"#utility.yul\":4022:4093   */\n      tag_130\n      jump\t// in\n    tag_212:\n        /* \"#utility.yul\":3878:4100   */\n      swap3\n      swap2\n      pop\n      pop\n      jump\t// out\n        /* \"#utility.yul\":4106:4223   */\n    tag_133:\n        /* \"#utility.yul\":4215:4216   */\n      0x00\n        /* \"#utility.yul\":4212:4213   */\n      0x00\n        /* \"#utility.yul\":4205:4217   */\n      revert\n        /* \"#utility.yul\":4229:4346   */\n    tag_134:\n        /* \"#utility.yul\":4338:4339   */\n      0x00\n        /* \"#utility.yul\":4335:4336   */\n      0x00\n        /* \"#utility.yul\":4328:4340   */\n      revert\n        /* \"#utility.yul\":4352:4469   */\n    tag_135:\n        /* \"#utility.yul\":4461:4462   */\n      0x00\n        /* \"#utility.yul\":4458:4459   */\n      0x00\n        /* \"#utility.yul\":4451:4463   */\n      revert\n        /* \"#utility.yul\":4489:5042   */\n    tag_136:\n        /* \"#utility.yul\":4547:4555   */\n      0x00\n        /* \"#utility.yul\":4557:4563   */\n      0x00\n        /* \"#utility.yul\":4607:4610   */\n      dup4\n        /* \"#utility.yul\":4600:4604   */\n      0x1f\n        /* \"#utility.yul\":4592:4598   */\n      dup5\n        /* \"#utility.yul\":4588:4605   */\n      add\n        /* \"#utility.yul\":4584:4611   */\n      slt\n        /* \"#utility.yul\":4574:4696   */\n      tag_217\n      jumpi\n        /* \"#utility.yul\":4615:4694   */\n      tag_218\n      tag_133\n      jump\t// in\n    tag_218:\n        /* \"#utility.yul\":4574:4696   */\n    tag_217:\n        /* \"#utility.yul\":4728:4734   */\n      dup3\n        /* \"#utility.yul\":4715:4735   */\n      calldataload\n        /* \"#utility.yul\":4705:4735   */\n      swap1\n      pop\n        /* \"#utility.yul\":4758:4776   */\n      0xffffffffffffffff\n        /* \"#utility.yul\":4750:4756   */\n      dup2\n        /* \"#utility.yul\":4747:4777   */\n      gt\n        /* \"#utility.yul\":4744:4861   */\n      iszero\n      tag_219\n      jumpi\n        /* \"#utility.yul\":4780:4859   */\n      tag_220\n      tag_134\n      jump\t// in\n    tag_220:\n        /* \"#utility.yul\":4744:4861   */\n    tag_219:\n        /* \"#utility.yul\":4894:4898   */\n      0x20\n        /* \"#utility.yul\":4886:4892   */\n      dup4\n        /* \"#utility.yul\":4882:4899   */\n      add\n        /* \"#utility.yul\":4870:4899   */\n      swap2\n      pop\n        /* \"#utility.yul\":4948:4951   */\n      dup4\n        /* \"#utility.yul\":4940:4944   */\n      0x01\n        /* \"#utility.yul\":4932:4938   */\n      dup3\n        /* \"#utility.yul\":4928:4945   */\n      mul\n        /* \"#utility.yul\":4918:4926   */\n      dup4\n        /* \"#utility.yul\":4914:4946   */\n      add\n        /* \"#utility.yul\":4911:4952   */\n      gt\n        /* \"#utility.yul\":4908:5036   */\n      iszero\n      tag_221\n      jumpi\n        /* \"#utility.yul\":4955:5034   */\n      tag_222\n      tag_135\n      jump\t// in\n    tag_222:\n        /* \"#utility.yul\":4908:5036   */\n    tag_221:\n        /* \"#utility.yul\":4489:5042   */\n      swap3\n      pop\n      swap3\n      swap1\n      pop\n      jump\t// out\n        /* \"#utility.yul\":5048:6613   */\n    tag_31:\n        /* \"#utility.yul\":5182:5188   */\n      0x00\n        /* \"#utility.yul\":5190:5196   */\n      0x00\n        /* \"#utility.yul\":5198:5204   */\n      0x00\n        /* \"#utility.yul\":5206:5212   */\n      0x00\n        /* \"#utility.yul\":5214:5220   */\n      0x00\n        /* \"#utility.yul\":5222:5228   */\n      0x00\n        /* \"#utility.yul\":5230:5236   */\n      0x00\n        /* \"#utility.yul\":5238:5244   */\n      0x00\n        /* \"#utility.yul\":5287:5290   */\n      0x80\n        /* \"#utility.yul\":5275:5284   */\n      dup10\n        /* \"#utility.yul\":5266:5273   */\n      dup12\n        /* \"#utility.yul\":5262:5285   */\n      sub\n        /* \"#utility.yul\":5258:5291   */\n      slt\n        /* \"#utility.yul\":5255:5375   */\n      iszero\n      tag_224\n      jumpi\n        /* \"#utility.yul\":5294:5373   */\n      tag_225\n      tag_117\n      jump\t// in\n    tag_225:\n        /* \"#utility.yul\":5255:5375   */\n    tag_224:\n        /* \"#utility.yul\":5442:5443   */\n      0x00\n        /* \"#utility.yul\":5431:5440   */\n      dup10\n        /* \"#utility.yul\":5427:5444   */\n      add\n        /* \"#utility.yul\":5414:5445   */\n      calldataload\n        /* \"#utility.yul\":5472:5490   */\n      0xffffffffffffffff\n        /* \"#utility.yul\":5464:5470   */\n      dup2\n        /* \"#utility.yul\":5461:5491   */\n      gt\n        /* \"#utility.yul\":5458:5575   */\n      iszero\n      tag_226\n      jumpi\n        /* \"#utility.yul\":5494:5573   */\n      tag_227\n      tag_118\n      jump\t// in\n    tag_227:\n        /* \"#utility.yul\":5458:5575   */\n    tag_226:\n        /* \"#utility.yul\":5607:5672   */\n      tag_228\n        /* \"#utility.yul\":5664:5671   */\n      dup12\n        /* \"#utility.yul\":5655:5661   */\n      dup3\n        /* \"#utility.yul\":5644:5653   */\n      dup13\n        /* \"#utility.yul\":5640:5662   */\n      add\n        /* \"#utility.yul\":5607:5672   */\n      tag_136\n      jump\t// in\n    tag_228:\n        /* \"#utility.yul\":5589:5672   */\n      swap9\n      pop\n      swap9\n      pop\n        /* \"#utility.yul\":5385:5682   */\n      pop\n        /* \"#utility.yul\":5749:5751   */\n      0x20\n        /* \"#utility.yul\":5738:5747   */\n      dup10\n        /* \"#utility.yul\":5734:5752   */\n      add\n        /* \"#utility.yul\":5721:5753   */\n      calldataload\n        /* \"#utility.yul\":5780:5798   */\n      0xffffffffffffffff\n        /* \"#utility.yul\":5772:5778   */\n      dup2\n        /* \"#utility.yul\":5769:5799   */\n      gt\n        /* \"#utility.yul\":5766:5883   */\n      iszero\n      tag_229\n      jumpi\n        /* \"#utility.yul\":5802:5881   */\n      tag_230\n      tag_118\n      jump\t// in\n    tag_230:\n        /* \"#utility.yul\":5766:5883   */\n    tag_229:\n        /* \"#utility.yul\":5915:5980   */\n      tag_231\n        /* \"#utility.yul\":5972:5979   */\n      dup12\n        /* \"#utility.yul\":5963:5969   */\n      dup3\n        /* \"#utility.yul\":5952:5961   */\n      dup13\n        /* \"#utility.yul\":5948:5970   */\n      add\n        /* \"#utility.yul\":5915:5980   */\n      tag_136\n      jump\t// in\n    tag_231:\n        /* \"#utility.yul\":5897:5980   */\n      swap7\n      pop\n      swap7\n      pop\n        /* \"#utility.yul\":5692:5990   */\n      pop\n        /* \"#utility.yul\":6057:6059   */\n      0x40\n        /* \"#utility.yul\":6046:6055   */\n      dup10\n        /* \"#utility.yul\":6042:6060   */\n      add\n        /* \"#utility.yul\":6029:6061   */\n      calldataload\n        /* \"#utility.yul\":6088:6106   */\n      0xffffffffffffffff\n        /* \"#utility.yul\":6080:6086   */\n      dup2\n        /* \"#utility.yul\":6077:6107   */\n      gt\n        /* \"#utility.yul\":6074:6191   */\n      iszero\n      tag_232\n      jumpi\n        /* \"#utility.yul\":6110:6189   */\n      tag_233\n      tag_118\n      jump\t// in\n    tag_233:\n        /* \"#utility.yul\":6074:6191   */\n    tag_232:\n        /* \"#utility.yul\":6223:6288   */\n      tag_234\n        /* \"#utility.yul\":6280:6287   */\n      dup12\n        /* \"#utility.yul\":6271:6277   */\n      dup3\n        /* \"#utility.yul\":6260:6269   */\n      dup13\n        /* \"#utility.yul\":6256:6278   */\n      add\n        /* \"#utility.yul\":6223:6288   */\n      tag_136\n      jump\t// in\n    tag_234:\n        /* \"#utility.yul\":6205:6288   */\n      swap5\n      pop\n      swap5\n      pop\n        /* \"#utility.yul\":6000:6298   */\n      pop\n        /* \"#utility.yul\":6365:6367   */\n      0x60\n        /* \"#utility.yul\":6354:6363   */\n      dup10\n        /* \"#utility.yul\":6350:6368   */\n      add\n        /* \"#utility.yul\":6337:6369   */\n      calldataload\n        /* \"#utility.yul\":6396:6414   */\n      0xffffffffffffffff\n        /* \"#utility.yul\":6388:6394   */\n      dup2\n        /* \"#utility.yul\":6385:6415   */\n      gt\n        /* \"#utility.yul\":6382:6499   */\n      iszero\n      tag_235\n      jumpi\n        /* \"#utility.yul\":6418:6497   */\n      tag_236\n      tag_118\n      jump\t// in\n    tag_236:\n        /* \"#utility.yul\":6382:6499   */\n    tag_235:\n        /* \"#utility.yul\":6531:6596   */\n      tag_237\n        /* \"#utility.yul\":6588:6595   */\n      dup12\n        /* \"#utility.yul\":6579:6585   */\n      dup3\n        /* \"#utility.yul\":6568:6577   */\n      dup13\n        /* \"#utility.yul\":6564:6586   */\n      add\n        /* \"#utility.yul\":6531:6596   */\n      tag_136\n      jump\t// in\n    tag_237:\n        /* \"#utility.yul\":6513:6596   */\n      swap3\n      pop\n      swap3\n      pop\n        /* \"#utility.yul\":6308:6606   */\n      pop\n        /* \"#utility.yul\":5048:6613   */\n      swap3\n      swap6\n      swap9\n      pop\n      swap3\n      swap6\n      swap9\n      swap1\n      swap4\n      swap7\n      pop\n      jump\t// out\n        /* \"#utility.yul\":6619:6799   */\n    tag_137:\n        /* \"#utility.yul\":6667:6744   */\n      0x4e487b7100000000000000000000000000000000000000000000000000000000\n        /* \"#utility.yul\":6664:6665   */\n      0x00\n        /* \"#utility.yul\":6657:6745   */\n      mstore\n        /* \"#utility.yul\":6764:6768   */\n      0x22\n        /* \"#utility.yul\":6761:6762   */\n      0x04\n        /* \"#utility.yul\":6754:6769   */\n      mstore\n        /* \"#utility.yul\":6788:6792   */\n      0x24\n        /* \"#utility.yul\":6785:6786   */\n      0x00\n        /* \"#utility.yul\":6778:6793   */\n      revert\n        /* \"#utility.yul\":6805:7125   */\n    tag_38:\n        /* \"#utility.yul\":6849:6855   */\n      0x00\n        /* \"#utility.yul\":6886:6887   */\n      0x02\n        /* \"#utility.yul\":6880:6884   */\n      dup3\n        /* \"#utility.yul\":6876:6888   */\n      div\n        /* \"#utility.yul\":6866:6888   */\n      swap1\n      pop\n        /* \"#utility.yul\":6933:6934   */\n      0x01\n        /* \"#utility.yul\":6927:6931   */\n      dup3\n        /* \"#utility.yul\":6923:6935   */\n      and\n        /* \"#utility.yul\":6954:6972   */\n      dup1\n        /* \"#utility.yul\":6944:7025   */\n      tag_240\n      jumpi\n        /* \"#utility.yul\":7010:7014   */\n      0x7f\n        /* \"#utility.yul\":7002:7008   */\n      dup3\n        /* \"#utility.yul\":6998:7015   */\n      and\n        /* \"#utility.yul\":6988:7015   */\n      swap2\n      pop\n        /* \"#utility.yul\":6944:7025   */\n    tag_240:\n        /* \"#utility.yul\":7072:7074   */\n      0x20\n        /* \"#utility.yul\":7064:7070   */\n      dup3\n        /* \"#utility.yul\":7061:7075   */\n      lt\n        /* \"#utility.yul\":7041:7059   */\n      dup2\n        /* \"#utility.yul\":7038:7076   */\n      sub\n        /* \"#utility.yul\":7035:7119   */\n      tag_241\n      jumpi\n        /* \"#utility.yul\":7091:7109   */\n      tag_242\n      tag_137\n      jump\t// in\n    tag_242:\n        /* \"#utility.yul\":7035:7119   */\n    tag_241:\n        /* \"#utility.yul\":6856:7125   */\n      pop\n        /* \"#utility.yul\":6805:7125   */\n      swap2\n      swap1\n      pop\n      jump\t// out\n        /* \"#utility.yul\":7131:7306   */\n    tag_138:\n        /* \"#utility.yul\":7271:7298   */\n      0x596f7520646f206e6f742068617665207065726d6974696f6e00000000000000\n        /* \"#utility.yul\":7267:7268   */\n      0x00\n        /* \"#utility.yul\":7259:7265   */\n      dup3\n        /* \"#utility.yul\":7255:7269   */\n      add\n        /* \"#utility.yul\":7248:7299   */\n      mstore\n        /* \"#utility.yul\":7131:7306   */\n      pop\n      jump\t// out\n        /* \"#utility.yul\":7312:7678   */\n    tag_139:\n        /* \"#utility.yul\":7454:7457   */\n      0x00\n        /* \"#utility.yul\":7475:7542   */\n      tag_245\n        /* \"#utility.yul\":7539:7541   */\n      0x19\n        /* \"#utility.yul\":7534:7537   */\n      dup4\n        /* \"#utility.yul\":7475:7542   */\n      tag_126\n      jump\t// in\n    tag_245:\n        /* \"#utility.yul\":7468:7542   */\n      swap2\n      pop\n        /* \"#utility.yul\":7551:7644   */\n      tag_246\n        /* \"#utility.yul\":7640:7643   */\n      dup3\n        /* \"#utility.yul\":7551:7644   */\n      tag_138\n      jump\t// in\n    tag_246:\n        /* \"#utility.yul\":7669:7671   */\n      0x20\n        /* \"#utility.yul\":7664:7667   */\n      dup3\n        /* \"#utility.yul\":7660:7672   */\n      add\n        /* \"#utility.yul\":7653:7672   */\n      swap1\n      pop\n        /* \"#utility.yul\":7312:7678   */\n      swap2\n      swap1\n      pop\n      jump\t// out\n        /* \"#utility.yul\":7684:8103   */\n    tag_60:\n        /* \"#utility.yul\":7850:7854   */\n      0x00\n        /* \"#utility.yul\":7888:7890   */\n      0x20\n        /* \"#utility.yul\":7877:7886   */\n      dup3\n        /* \"#utility.yul\":7873:7891   */\n      add\n        /* \"#utility.yul\":7865:7891   */\n      swap1\n      pop\n        /* \"#utility.yul\":7937:7946   */\n      dup2\n        /* \"#utility.yul\":7931:7935   */\n      dup2\n        /* \"#utility.yul\":7927:7947   */\n      sub\n        /* \"#utility.yul\":7923:7924   */\n      0x00\n        /* \"#utility.yul\":7912:7921   */\n      dup4\n        /* \"#utility.yul\":7908:7925   */\n      add\n        /* \"#utility.yul\":7901:7948   */\n      mstore\n        /* \"#utility.yul\":7965:8096   */\n      tag_248\n        /* \"#utility.yul\":8091:8095   */\n      dup2\n        /* \"#utility.yul\":7965:8096   */\n      tag_139\n      jump\t// in\n    tag_248:\n        /* \"#utility.yul\":7957:8096   */\n      swap1\n      pop\n        /* \"#utility.yul\":7684:8103   */\n      swap2\n      swap1\n      pop\n      jump\t// out\n        /* \"#utility.yul\":8109:8282   */\n    tag_140:\n        /* \"#utility.yul\":8249:8274   */\n      0x746869732063616d706169676e20697320636c6f736564000000000000000000\n        /* \"#utility.yul\":8245:8246   */\n      0x00\n        /* \"#utility.yul\":8237:8243   */\n      dup3\n        /* \"#utility.yul\":8233:8247   */\n      add\n        /* \"#utility.yul\":8226:8275   */\n      mstore\n        /* \"#utility.yul\":8109:8282   */\n      pop\n      jump\t// out\n        /* \"#utility.yul\":8288:8654   */\n    tag_141:\n        /* \"#utility.yul\":8430:8433   */\n      0x00\n        /* \"#utility.yul\":8451:8518   */\n      tag_251\n        /* \"#utility.yul\":8515:8517   */\n      0x17\n        /* \"#utility.yul\":8510:8513   */\n      dup4\n        /* \"#utility.yul\":8451:8518   */\n      tag_126\n      jump\t// in\n    tag_251:\n        /* \"#utility.yul\":8444:8518   */\n      swap2\n      pop\n        /* \"#utility.yul\":8527:8620   */\n      tag_252\n        /* \"#utility.yul\":8616:8619   */\n      dup3\n        /* \"#utility.yul\":8527:8620   */\n      tag_140\n      jump\t// in\n    tag_252:\n        /* \"#utility.yul\":8645:8647   */\n      0x20\n        /* \"#utility.yul\":8640:8643   */\n      dup3\n        /* \"#utility.yul\":8636:8648   */\n      add\n        /* \"#utility.yul\":8629:8648   */\n      swap1\n      pop\n        /* \"#utility.yul\":8288:8654   */\n      swap2\n      swap1\n      pop\n      jump\t// out\n        /* \"#utility.yul\":8660:9079   */\n    tag_63:\n        /* \"#utility.yul\":8826:8830   */\n      0x00\n        /* \"#utility.yul\":8864:8866   */\n      0x20\n        /* \"#utility.yul\":8853:8862   */\n      dup3\n        /* \"#utility.yul\":8849:8867   */\n      add\n        /* \"#utility.yul\":8841:8867   */\n      swap1\n      pop\n        /* \"#utility.yul\":8913:8922   */\n      dup2\n        /* \"#utility.yul\":8907:8911   */\n      dup2\n        /* \"#utility.yul\":8903:8923   */\n      sub\n        /* \"#utility.yul\":8899:8900   */\n      0x00\n        /* \"#utility.yul\":8888:8897   */\n      dup4\n        /* \"#utility.yul\":8884:8901   */\n      add\n        /* \"#utility.yul\":8877:8924   */\n      mstore\n        /* \"#utility.yul\":8941:9072   */\n      tag_254\n        /* \"#utility.yul\":9067:9071   */\n      dup2\n        /* \"#utility.yul\":8941:9072   */\n      tag_141\n      jump\t// in\n    tag_254:\n        /* \"#utility.yul\":8933:9072   */\n      swap1\n      pop\n        /* \"#utility.yul\":8660:9079   */\n      swap2\n      swap1\n      pop\n      jump\t// out\n        /* \"#utility.yul\":9085:9313   */\n    tag_142:\n        /* \"#utility.yul\":9225:9259   */\n      0x746869732063616d706169676e20646f73206e6f74206861766520656e6f7567\n        /* \"#utility.yul\":9221:9222   */\n      0x00\n        /* \"#utility.yul\":9213:9219   */\n      dup3\n        /* \"#utility.yul\":9209:9223   */\n      add\n        /* \"#utility.yul\":9202:9260   */\n      mstore\n        /* \"#utility.yul\":9294:9305   */\n      0x682062616c616e63650000000000000000000000000000000000000000000000\n        /* \"#utility.yul\":9289:9291   */\n      0x20\n        /* \"#utility.yul\":9281:9287   */\n      dup3\n        /* \"#utility.yul\":9277:9292   */\n      add\n        /* \"#utility.yul\":9270:9306   */\n      mstore\n        /* \"#utility.yul\":9085:9313   */\n      pop\n      jump\t// out\n        /* \"#utility.yul\":9319:9685   */\n    tag_143:\n        /* \"#utility.yul\":9461:9464   */\n      0x00\n        /* \"#utility.yul\":9482:9549   */\n      tag_257\n        /* \"#utility.yul\":9546:9548   */\n      0x29\n        /* \"#utility.yul\":9541:9544   */\n      dup4\n        /* \"#utility.yul\":9482:9549   */\n      tag_126\n      jump\t// in\n    tag_257:\n        /* \"#utility.yul\":9475:9549   */\n      swap2\n      pop\n        /* \"#utility.yul\":9558:9651   */\n      tag_258\n        /* \"#utility.yul\":9647:9650   */\n      dup3\n        /* \"#utility.yul\":9558:9651   */\n      tag_142\n      jump\t// in\n    tag_258:\n        /* \"#utility.yul\":9676:9678   */\n      0x40\n        /* \"#utility.yul\":9671:9674   */\n      dup3\n        /* \"#utility.yul\":9667:9679   */\n      add\n        /* \"#utility.yul\":9660:9679   */\n      swap1\n      pop\n        /* \"#utility.yul\":9319:9685   */\n      swap2\n      swap1\n      pop\n      jump\t// out\n        /* \"#utility.yul\":9691:10110   */\n    tag_66:\n        /* \"#utility.yul\":9857:9861   */\n      0x00\n        /* \"#utility.yul\":9895:9897   */\n      0x20\n        /* \"#utility.yul\":9884:9893   */\n      dup3\n        /* \"#utility.yul\":9880:9898   */\n      add\n        /* \"#utility.yul\":9872:9898   */\n      swap1\n      pop\n        /* \"#utility.yul\":9944:9953   */\n      dup2\n        /* \"#utility.yul\":9938:9942   */\n      dup2\n        /* \"#utility.yul\":9934:9954   */\n      sub\n        /* \"#utility.yul\":9930:9931   */\n      0x00\n        /* \"#utility.yul\":9919:9928   */\n      dup4\n        /* \"#utility.yul\":9915:9932   */\n      add\n        /* \"#utility.yul\":9908:9955   */\n      mstore\n        /* \"#utility.yul\":9972:10103   */\n      tag_260\n        /* \"#utility.yul\":10098:10102   */\n      dup2\n        /* \"#utility.yul\":9972:10103   */\n      tag_143\n      jump\t// in\n    tag_260:\n        /* \"#utility.yul\":9964:10103   */\n      swap1\n      pop\n        /* \"#utility.yul\":9691:10110   */\n      swap2\n      swap1\n      pop\n      jump\t// out\n        /* \"#utility.yul\":10116:10296   */\n    tag_144:\n        /* \"#utility.yul\":10164:10241   */\n      0x4e487b7100000000000000000000000000000000000000000000000000000000\n        /* \"#utility.yul\":10161:10162   */\n      0x00\n        /* \"#utility.yul\":10154:10242   */\n      mstore\n        /* \"#utility.yul\":10261:10265   */\n      0x11\n        /* \"#utility.yul\":10258:10259   */\n      0x04\n        /* \"#utility.yul\":10251:10266   */\n      mstore\n        /* \"#utility.yul\":10285:10289   */\n      0x24\n        /* \"#utility.yul\":10282:10283   */\n      0x00\n        /* \"#utility.yul\":10275:10290   */\n      revert\n        /* \"#utility.yul\":10302:10496   */\n    tag_68:\n        /* \"#utility.yul\":10342:10346   */\n      0x00\n        /* \"#utility.yul\":10362:10382   */\n      tag_263\n        /* \"#utility.yul\":10380:10381   */\n      dup3\n        /* \"#utility.yul\":10362:10382   */\n      tag_119\n      jump\t// in\n    tag_263:\n        /* \"#utility.yul\":10357:10382   */\n      swap2\n      pop\n        /* \"#utility.yul\":10396:10416   */\n      tag_264\n        /* \"#utility.yul\":10414:10415   */\n      dup4\n        /* \"#utility.yul\":10396:10416   */\n      tag_119\n      jump\t// in\n    tag_264:\n        /* \"#utility.yul\":10391:10416   */\n      swap3\n      pop\n        /* \"#utility.yul\":10440:10441   */\n      dup3\n        /* \"#utility.yul\":10437:10438   */\n      dup3\n        /* \"#utility.yul\":10433:10442   */\n      sub\n        /* \"#utility.yul\":10425:10442   */\n      swap1\n      pop\n        /* \"#utility.yul\":10464:10465   */\n      dup2\n        /* \"#utility.yul\":10458:10462   */\n      dup2\n        /* \"#utility.yul\":10455:10466   */\n      gt\n        /* \"#utility.yul\":10452:10489   */\n      iszero\n      tag_265\n      jumpi\n        /* \"#utility.yul\":10469:10487   */\n      tag_266\n      tag_144\n      jump\t// in\n    tag_266:\n        /* \"#utility.yul\":10452:10489   */\n    tag_265:\n        /* \"#utility.yul\":10302:10496   */\n      swap3\n      swap2\n      pop\n      pop\n      jump\t// out\n        /* \"#utility.yul\":10502:10649   */\n    tag_145:\n        /* \"#utility.yul\":10603:10614   */\n      0x00\n        /* \"#utility.yul\":10640:10643   */\n      dup2\n        /* \"#utility.yul\":10625:10643   */\n      swap1\n      pop\n        /* \"#utility.yul\":10502:10649   */\n      swap3\n      swap2\n      pop\n      pop\n      jump\t// out\n        /* \"#utility.yul\":10655:10769   */\n    tag_146:\n      pop\n      jump\t// out\n        /* \"#utility.yul\":10775:11173   */\n    tag_147:\n        /* \"#utility.yul\":10934:10937   */\n      0x00\n        /* \"#utility.yul\":10955:11038   */\n      tag_270\n        /* \"#utility.yul\":11036:11037   */\n      0x00\n        /* \"#utility.yul\":11031:11034   */\n      dup4\n        /* \"#utility.yul\":10955:11038   */\n      tag_145\n      jump\t// in\n    tag_270:\n        /* \"#utility.yul\":10948:11038   */\n      swap2\n      pop\n        /* \"#utility.yul\":11047:11140   */\n      tag_271\n        /* \"#utility.yul\":11136:11139   */\n      dup3\n        /* \"#utility.yul\":11047:11140   */\n      tag_146\n      jump\t// in\n    tag_271:\n        /* \"#utility.yul\":11165:11166   */\n      0x00\n        /* \"#utility.yul\":11160:11163   */\n      dup3\n        /* \"#utility.yul\":11156:11167   */\n      add\n        /* \"#utility.yul\":11149:11167   */\n      swap1\n      pop\n        /* \"#utility.yul\":10775:11173   */\n      swap2\n      swap1\n      pop\n      jump\t// out\n        /* \"#utility.yul\":11179:11558   */\n    tag_70:\n        /* \"#utility.yul\":11363:11366   */\n      0x00\n        /* \"#utility.yul\":11385:11532   */\n      tag_273\n        /* \"#utility.yul\":11528:11531   */\n      dup3\n        /* \"#utility.yul\":11385:11532   */\n      tag_147\n      jump\t// in\n    tag_273:\n        /* \"#utility.yul\":11378:11532   */\n      swap2\n      pop\n        /* \"#utility.yul\":11549:11552   */\n      dup2\n        /* \"#utility.yul\":11542:11552   */\n      swap1\n      pop\n        /* \"#utility.yul\":11179:11558   */\n      swap2\n      swap1\n      pop\n      jump\t// out\n        /* \"#utility.yul\":11564:11736   */\n    tag_148:\n        /* \"#utility.yul\":11704:11728   */\n      0x46616c6861206e61207472616e73666572656e63696100000000000000000000\n        /* \"#utility.yul\":11700:11701   */\n      0x00\n        /* \"#utility.yul\":11692:11698   */\n      dup3\n        /* \"#utility.yul\":11688:11702   */\n      add\n        /* \"#utility.yul\":11681:11729   */\n      mstore\n        /* \"#utility.yul\":11564:11736   */\n      pop\n      jump\t// out\n        /* \"#utility.yul\":11742:12108   */\n    tag_149:\n        /* \"#utility.yul\":11884:11887   */\n      0x00\n        /* \"#utility.yul\":11905:11972   */\n      tag_276\n        /* \"#utility.yul\":11969:11971   */\n      0x16\n        /* \"#utility.yul\":11964:11967   */\n      dup4\n        /* \"#utility.yul\":11905:11972   */\n      tag_126\n      jump\t// in\n    tag_276:\n        /* \"#utility.yul\":11898:11972   */\n      swap2\n      pop\n        /* \"#utility.yul\":11981:12074   */\n      tag_277\n        /* \"#utility.yul\":12070:12073   */\n      dup3\n        /* \"#utility.yul\":11981:12074   */\n      tag_148\n      jump\t// in\n    tag_277:\n        /* \"#utility.yul\":12099:12101   */\n      0x20\n        /* \"#utility.yul\":12094:12097   */\n      dup3\n        /* \"#utility.yul\":12090:12102   */\n      add\n        /* \"#utility.yul\":12083:12102   */\n      swap1\n      pop\n        /* \"#utility.yul\":11742:12108   */\n      swap2\n      swap1\n      pop\n      jump\t// out\n        /* \"#utility.yul\":12114:12533   */\n    tag_76:\n        /* \"#utility.yul\":12280:12284   */\n      0x00\n        /* \"#utility.yul\":12318:12320   */\n      0x20\n        /* \"#utility.yul\":12307:12316   */\n      dup3\n        /* \"#utility.yul\":12303:12321   */\n      add\n        /* \"#utility.yul\":12295:12321   */\n      swap1\n      pop\n        /* \"#utility.yul\":12367:12376   */\n      dup2\n        /* \"#utility.yul\":12361:12365   */\n      dup2\n        /* \"#utility.yul\":12357:12377   */\n      sub\n        /* \"#utility.yul\":12353:12354   */\n      0x00\n        /* \"#utility.yul\":12342:12351   */\n      dup4\n        /* \"#utility.yul\":12338:12355   */\n      add\n        /* \"#utility.yul\":12331:12378   */\n      mstore\n        /* \"#utility.yul\":12395:12526   */\n      tag_279\n        /* \"#utility.yul\":12521:12525   */\n      dup2\n        /* \"#utility.yul\":12395:12526   */\n      tag_149\n      jump\t// in\n    tag_279:\n        /* \"#utility.yul\":12387:12526   */\n      swap1\n      pop\n        /* \"#utility.yul\":12114:12533   */\n      swap2\n      swap1\n      pop\n      jump\t// out\n        /* \"#utility.yul\":12539:12772   */\n    tag_101:\n        /* \"#utility.yul\":12578:12581   */\n      0x00\n        /* \"#utility.yul\":12601:12625   */\n      tag_281\n        /* \"#utility.yul\":12619:12624   */\n      dup3\n        /* \"#utility.yul\":12601:12625   */\n      tag_119\n      jump\t// in\n    tag_281:\n        /* \"#utility.yul\":12592:12625   */\n      swap2\n      pop\n        /* \"#utility.yul\":12647:12713   */\n      0xffffffffffffffffffffffffffffffffffffffffffffffffffffffffffffffff\n        /* \"#utility.yul\":12640:12645   */\n      dup3\n        /* \"#utility.yul\":12637:12714   */\n      sub\n        /* \"#utility.yul\":12634:12737   */\n      tag_282\n      jumpi\n        /* \"#utility.yul\":12717:12735   */\n      tag_283\n      tag_144\n      jump\t// in\n    tag_283:\n        /* \"#utility.yul\":12634:12737   */\n    tag_282:\n        /* \"#utility.yul\":12764:12765   */\n      0x01\n        /* \"#utility.yul\":12757:12762   */\n      dup3\n        /* \"#utility.yul\":12753:12766   */\n      add\n        /* \"#utility.yul\":12746:12766   */\n      swap1\n      pop\n        /* \"#utility.yul\":12539:12772   */\n      swap2\n      swap1\n      pop\n      jump\t// out\n        /* \"#utility.yul\":12778:12958   */\n    tag_150:\n        /* \"#utility.yul\":12826:12903   */\n      0x4e487b7100000000000000000000000000000000000000000000000000000000\n        /* \"#utility.yul\":12823:12824   */\n      0x00\n        /* \"#utility.yul\":12816:12904   */\n      mstore\n        /* \"#utility.yul\":12923:12927   */\n      0x41\n        /* \"#utility.yul\":12920:12921   */\n      0x04\n        /* \"#utility.yul\":12913:12928   */\n      mstore\n        /* \"#utility.yul\":12947:12951   */\n      0x24\n        /* \"#utility.yul\":12944:12945   */\n      0x00\n        /* \"#utility.yul\":12937:12952   */\n      revert\n        /* \"#utility.yul\":12964:13105   */\n    tag_151:\n        /* \"#utility.yul\":13013:13017   */\n      0x00\n        /* \"#utility.yul\":13036:13039   */\n      dup2\n        /* \"#utility.yul\":13028:13039   */\n      swap1\n      pop\n        /* \"#utility.yul\":13059:13062   */\n      dup2\n        /* \"#utility.yul\":13056:13057   */\n      0x00\n        /* \"#utility.yul\":13049:13063   */\n      mstore\n        /* \"#utility.yul\":13093:13097   */\n      0x20\n        /* \"#utility.yul\":13090:13091   */\n      0x00\n        /* \"#utility.yul\":13080:13098   */\n      keccak256\n        /* \"#utility.yul\":13072:13098   */\n      swap1\n      pop\n        /* \"#utility.yul\":12964:13105   */\n      swap2\n      swap1\n      pop\n      jump\t// out\n        /* \"#utility.yul\":13111:13204   */\n    tag_152:\n        /* \"#utility.yul\":13148:13154   */\n      0x00\n        /* \"#utility.yul\":13195:13197   */\n      0x20\n        /* \"#utility.yul\":13190:13192   */\n      0x1f\n        /* \"#utility.yul\":13183:13188   */\n      dup4\n        /* \"#utility.yul\":13179:13193   */\n      add\n        /* \"#utility.yul\":13175:13198   */\n      div\n        /* \"#utility.yul\":13165:13198   */\n      swap1\n      pop\n        /* \"#utility.yul\":13111:13204   */\n      swap2\n      swap1\n      pop\n      jump\t// out\n        /* \"#utility.yul\":13210:13317   */\n    tag_153:\n        /* \"#utility.yul\":13254:13262   */\n      0x00\n        /* \"#utility.yul\":13304:13309   */\n      dup3\n        /* \"#utility.yul\":13298:13302   */\n      dup3\n        /* \"#utility.yul\":13294:13310   */\n      shl\n        /* \"#utility.yul\":13273:13310   */\n      swap1\n      pop\n        /* \"#utility.yul\":13210:13317   */\n      swap3\n      swap2\n      pop\n      pop\n      jump\t// out\n        /* \"#utility.yul\":13323:13716   */\n    tag_154:\n        /* \"#utility.yul\":13392:13398   */\n      0x00\n        /* \"#utility.yul\":13442:13443   */\n      0x08\n        /* \"#utility.yul\":13430:13440   */\n      dup4\n        /* \"#utility.yul\":13426:13444   */\n      mul\n        /* \"#utility.yul\":13465:13562   */\n      tag_289\n        /* \"#utility.yul\":13495:13561   */\n      0xffffffffffffffffffffffffffffffffffffffffffffffffffffffffffffffff\n        /* \"#utility.yul\":13484:13493   */\n      dup3\n        /* \"#utility.yul\":13465:13562   */\n      tag_153\n      jump\t// in\n    tag_289:\n        /* \"#utility.yul\":13583:13622   */\n      tag_290\n        /* \"#utility.yul\":13613:13621   */\n      dup7\n        /* \"#utility.yul\":13602:13611   */\n      dup4\n        /* \"#utility.yul\":13583:13622   */\n      tag_153\n      jump\t// in\n    tag_290:\n        /* \"#utility.yul\":13571:13622   */\n      swap6\n      pop\n        /* \"#utility.yul\":13655:13659   */\n      dup1\n        /* \"#utility.yul\":13651:13660   */\n      not\n        /* \"#utility.yul\":13644:13649   */\n      dup5\n        /* \"#utility.yul\":13640:13661   */\n      and\n        /* \"#utility.yul\":13631:13661   */\n      swap4\n      pop\n        /* \"#utility.yul\":13704:13708   */\n      dup1\n        /* \"#utility.yul\":13694:13702   */\n      dup7\n        /* \"#utility.yul\":13690:13709   */\n      and\n        /* \"#utility.yul\":13683:13688   */\n      dup5\n        /* \"#utility.yul\":13680:13710   */\n      or\n        /* \"#utility.yul\":13670:13710   */\n      swap3\n      pop\n        /* \"#utility.yul\":13399:13716   */\n      pop\n      pop\n        /* \"#utility.yul\":13323:13716   */\n      swap4\n      swap3\n      pop\n      pop\n      pop\n      jump\t// out\n        /* \"#utility.yul\":13722:13782   */\n    tag_155:\n        /* \"#utility.yul\":13750:13753   */\n      0x00\n        /* \"#utility.yul\":13771:13776   */\n      dup2\n        /* \"#utility.yul\":13764:13776   */\n      swap1\n      pop\n        /* \"#utility.yul\":13722:13782   */\n      swap2\n      swap1\n      pop\n      jump\t// out\n        /* \"#utility.yul\":13788:13930   */\n    tag_156:\n        /* \"#utility.yul\":13838:13847   */\n      0x00\n        /* \"#utility.yul\":13871:13924   */\n      tag_293\n        /* \"#utility.yul\":13889:13923   */\n      tag_294\n        /* \"#utility.yul\":13898:13922   */\n      tag_295\n        /* \"#utility.yul\":13916:13921   */\n      dup5\n        /* \"#utility.yul\":13898:13922   */\n      tag_119\n      jump\t// in\n    tag_295:\n        /* \"#utility.yul\":13889:13923   */\n      tag_155\n      jump\t// in\n    tag_294:\n        /* \"#utility.yul\":13871:13924   */\n      tag_119\n      jump\t// in\n    tag_293:\n        /* \"#utility.yul\":13858:13924   */\n      swap1\n      pop\n        /* \"#utility.yul\":13788:13930   */\n      swap2\n      swap1\n      pop\n      jump\t// out\n        /* \"#utility.yul\":13936:14011   */\n    tag_157:\n        /* \"#utility.yul\":13979:13982   */\n      0x00\n        /* \"#utility.yul\":14000:14005   */\n      dup2\n        /* \"#utility.yul\":13993:14005   */\n      swap1\n      pop\n        /* \"#utility.yul\":13936:14011   */\n      swap2\n      swap1\n      pop\n      jump\t// out\n        /* \"#utility.yul\":14017:14286   */\n    tag_158:\n        /* \"#utility.yul\":14127:14166   */\n      tag_298\n        /* \"#utility.yul\":14158:14165   */\n      dup4\n        /* \"#utility.yul\":14127:14166   */\n      tag_156\n      jump\t// in\n    tag_298:\n        /* \"#utility.yul\":14188:14279   */\n      tag_299\n        /* \"#utility.yul\":14237:14278   */\n      tag_300\n        /* \"#utility.yul\":14261:14277   */\n      dup3\n        /* \"#utility.yul\":14237:14278   */\n      tag_157\n      jump\t// in\n    tag_300:\n        /* \"#utility.yul\":14229:14235   */\n      dup5\n        /* \"#utility.yul\":14222:14226   */\n      dup5\n        /* \"#utility.yul\":14216:14227   */\n      sload\n        /* \"#utility.yul\":14188:14279   */\n      tag_154\n      jump\t// in\n    tag_299:\n        /* \"#utility.yul\":14182:14186   */\n      dup3\n        /* \"#utility.yul\":14175:14280   */\n      sstore\n        /* \"#utility.yul\":14093:14286   */\n      pop\n        /* \"#utility.yul\":14017:14286   */\n      pop\n      pop\n      pop\n      jump\t// out\n        /* \"#utility.yul\":14292:14365   */\n    tag_159:\n        /* \"#utility.yul\":14337:14340   */\n      0x00\n        /* \"#utility.yul\":14358:14359   */\n      0x00\n        /* \"#utility.yul\":14351:14359   */\n      swap1\n      pop\n        /* \"#utility.yul\":14292:14365   */\n      swap1\n      jump\t// out\n        /* \"#utility.yul\":14371:14560   */\n    tag_160:\n        /* \"#utility.yul\":14448:14480   */\n      tag_303\n      tag_159\n      jump\t// in\n    tag_303:\n        /* \"#utility.yul\":14489:14554   */\n      tag_304\n        /* \"#utility.yul\":14547:14553   */\n      dup2\n        /* \"#utility.yul\":14539:14545   */\n      dup5\n        /* \"#utility.yul\":14533:14537   */\n      dup5\n        /* \"#utility.yul\":14489:14554   */\n      tag_158\n      jump\t// in\n    tag_304:\n        /* \"#utility.yul\":14424:14560   */\n      pop\n        /* \"#utility.yul\":14371:14560   */\n      pop\n      pop\n      jump\t// out\n        /* \"#utility.yul\":14566:14752   */\n    tag_161:\n        /* \"#utility.yul\":14626:14746   */\n    tag_306:\n        /* \"#utility.yul\":14643:14646   */\n      dup2\n        /* \"#utility.yul\":14636:14641   */\n      dup2\n        /* \"#utility.yul\":14633:14647   */\n      lt\n        /* \"#utility.yul\":14626:14746   */\n      iszero\n      tag_308\n      jumpi\n        /* \"#utility.yul\":14697:14736   */\n      tag_309\n        /* \"#utility.yul\":14734:14735   */\n      0x00\n        /* \"#utility.yul\":14727:14732   */\n      dup3\n        /* \"#utility.yul\":14697:14736   */\n      tag_160\n      jump\t// in\n    tag_309:\n        /* \"#utility.yul\":14670:14671   */\n      0x01\n        /* \"#utility.yul\":14663:14668   */\n      dup2\n        /* \"#utility.yul\":14659:14672   */\n      add\n        /* \"#utility.yul\":14650:14672   */\n      swap1\n      pop\n        /* \"#utility.yul\":14626:14746   */\n      jump(tag_306)\n    tag_308:\n        /* \"#utility.yul\":14566:14752   */\n      pop\n      pop\n      jump\t// out\n        /* \"#utility.yul\":14758:15301   */\n    tag_162:\n        /* \"#utility.yul\":14859:14861   */\n      0x1f\n        /* \"#utility.yul\":14854:14857   */\n      dup3\n        /* \"#utility.yul\":14851:14862   */\n      gt\n        /* \"#utility.yul\":14848:15294   */\n      iszero\n      tag_311\n      jumpi\n        /* \"#utility.yul\":14893:14931   */\n      tag_312\n        /* \"#utility.yul\":14925:14930   */\n      dup2\n        /* \"#utility.yul\":14893:14931   */\n      tag_151\n      jump\t// in\n    tag_312:\n        /* \"#utility.yul\":14977:15006   */\n      tag_313\n        /* \"#utility.yul\":14995:15005   */\n      dup5\n        /* \"#utility.yul\":14977:15006   */\n      tag_152\n      jump\t// in\n    tag_313:\n        /* \"#utility.yul\":14967:14975   */\n      dup2\n        /* \"#utility.yul\":14963:15007   */\n      add\n        /* \"#utility.yul\":15160:15162   */\n      0x20\n        /* \"#utility.yul\":15148:15158   */\n      dup6\n        /* \"#utility.yul\":15145:15163   */\n      lt\n        /* \"#utility.yul\":15142:15191   */\n      iszero\n      tag_314\n      jumpi\n        /* \"#utility.yul\":15181:15189   */\n      dup2\n        /* \"#utility.yul\":15166:15189   */\n      swap1\n      pop\n        /* \"#utility.yul\":15142:15191   */\n    tag_314:\n        /* \"#utility.yul\":15204:15284   */\n      tag_315\n        /* \"#utility.yul\":15260:15282   */\n      tag_316\n        /* \"#utility.yul\":15278:15281   */\n      dup6\n        /* \"#utility.yul\":15260:15282   */\n      tag_152\n      jump\t// in\n    tag_316:\n        /* \"#utility.yul\":15250:15258   */\n      dup4\n        /* \"#utility.yul\":15246:15283   */\n      add\n        /* \"#utility.yul\":15233:15244   */\n      dup3\n        /* \"#utility.yul\":15204:15284   */\n      tag_161\n      jump\t// in\n    tag_315:\n        /* \"#utility.yul\":14863:15294   */\n      pop\n      pop\n        /* \"#utility.yul\":14848:15294   */\n    tag_311:\n        /* \"#utility.yul\":14758:15301   */\n      pop\n      pop\n      pop\n      jump\t// out\n        /* \"#utility.yul\":15307:15424   */\n    tag_163:\n        /* \"#utility.yul\":15361:15369   */\n      0x00\n        /* \"#utility.yul\":15411:15416   */\n      dup3\n        /* \"#utility.yul\":15405:15409   */\n      dup3\n        /* \"#utility.yul\":15401:15417   */\n      shr\n        /* \"#utility.yul\":15380:15417   */\n      swap1\n      pop\n        /* \"#utility.yul\":15307:15424   */\n      swap3\n      swap2\n      pop\n      pop\n      jump\t// out\n        /* \"#utility.yul\":15430:15599   */\n    tag_164:\n        /* \"#utility.yul\":15474:15480   */\n      0x00\n        /* \"#utility.yul\":15507:15558   */\n      tag_319\n        /* \"#utility.yul\":15555:15556   */\n      0x00\n        /* \"#utility.yul\":15551:15557   */\n      not\n        /* \"#utility.yul\":15543:15548   */\n      dup5\n        /* \"#utility.yul\":15540:15541   */\n      0x08\n        /* \"#utility.yul\":15536:15549   */\n      mul\n        /* \"#utility.yul\":15507:15558   */\n      tag_163\n      jump\t// in\n    tag_319:\n        /* \"#utility.yul\":15503:15559   */\n      not\n        /* \"#utility.yul\":15588:15592   */\n      dup1\n        /* \"#utility.yul\":15582:15586   */\n      dup4\n        /* \"#utility.yul\":15578:15593   */\n      and\n        /* \"#utility.yul\":15568:15593   */\n      swap2\n      pop\n        /* \"#utility.yul\":15481:15599   */\n      pop\n        /* \"#utility.yul\":15430:15599   */\n      swap3\n      swap2\n      pop\n      pop\n      jump\t// out\n        /* \"#utility.yul\":15604:15899   */\n    tag_165:\n        /* \"#utility.yul\":15680:15684   */\n      0x00\n        /* \"#utility.yul\":15826:15855   */\n      tag_321\n        /* \"#utility.yul\":15851:15854   */\n      dup4\n        /* \"#utility.yul\":15845:15849   */\n      dup4\n        /* \"#utility.yul\":15826:15855   */\n      tag_164\n      jump\t// in\n    tag_321:\n        /* \"#utility.yul\":15818:15855   */\n      swap2\n      pop\n        /* \"#utility.yul\":15888:15891   */\n      dup3\n        /* \"#utility.yul\":15885:15886   */\n      0x02\n        /* \"#utility.yul\":15881:15892   */\n      mul\n        /* \"#utility.yul\":15875:15879   */\n      dup3\n        /* \"#utility.yul\":15872:15893   */\n      or\n        /* \"#utility.yul\":15864:15893   */\n      swap1\n      pop\n        /* \"#utility.yul\":15604:15899   */\n      swap3\n      swap2\n      pop\n      pop\n      jump\t// out\n        /* \"#utility.yul\":15904:17299   */\n    tag_103:\n        /* \"#utility.yul\":16021:16058   */\n      tag_323\n        /* \"#utility.yul\":16054:16057   */\n      dup3\n        /* \"#utility.yul\":16021:16058   */\n      tag_125\n      jump\t// in\n    tag_323:\n        /* \"#utility.yul\":16123:16141   */\n      0xffffffffffffffff\n        /* \"#utility.yul\":16115:16121   */\n      dup2\n        /* \"#utility.yul\":16112:16142   */\n      gt\n        /* \"#utility.yul\":16109:16165   */\n      iszero\n      tag_324\n      jumpi\n        /* \"#utility.yul\":16145:16163   */\n      tag_325\n      tag_150\n      jump\t// in\n    tag_325:\n        /* \"#utility.yul\":16109:16165   */\n    tag_324:\n        /* \"#utility.yul\":16189:16227   */\n      tag_326\n        /* \"#utility.yul\":16221:16225   */\n      dup3\n        /* \"#utility.yul\":16215:16226   */\n      sload\n        /* \"#utility.yul\":16189:16227   */\n      tag_38\n      jump\t// in\n    tag_326:\n        /* \"#utility.yul\":16274:16341   */\n      tag_327\n        /* \"#utility.yul\":16334:16340   */\n      dup3\n        /* \"#utility.yul\":16326:16332   */\n      dup3\n        /* \"#utility.yul\":16320:16324   */\n      dup6\n        /* \"#utility.yul\":16274:16341   */\n      tag_162\n      jump\t// in\n    tag_327:\n        /* \"#utility.yul\":16368:16369   */\n      0x00\n        /* \"#utility.yul\":16392:16396   */\n      0x20\n        /* \"#utility.yul\":16379:16396   */\n      swap1\n      pop\n        /* \"#utility.yul\":16424:16426   */\n      0x1f\n        /* \"#utility.yul\":16416:16422   */\n      dup4\n        /* \"#utility.yul\":16413:16427   */\n      gt\n        /* \"#utility.yul\":16441:16442   */\n      0x01\n        /* \"#utility.yul\":16436:17054   */\n      dup2\n      eq\n      tag_329\n      jumpi\n        /* \"#utility.yul\":17098:17099   */\n      0x00\n        /* \"#utility.yul\":17115:17121   */\n      dup5\n        /* \"#utility.yul\":17112:17189   */\n      iszero\n      tag_330\n      jumpi\n        /* \"#utility.yul\":17164:17173   */\n      dup3\n        /* \"#utility.yul\":17159:17162   */\n      dup8\n        /* \"#utility.yul\":17155:17174   */\n      add\n        /* \"#utility.yul\":17149:17175   */\n      mload\n        /* \"#utility.yul\":17140:17175   */\n      swap1\n      pop\n        /* \"#utility.yul\":17112:17189   */\n    tag_330:\n        /* \"#utility.yul\":17215:17282   */\n      tag_331\n        /* \"#utility.yul\":17275:17281   */\n      dup6\n        /* \"#utility.yul\":17268:17273   */\n      dup3\n        /* \"#utility.yul\":17215:17282   */\n      tag_165\n      jump\t// in\n    tag_331:\n        /* \"#utility.yul\":17209:17213   */\n      dup7\n        /* \"#utility.yul\":17202:17283   */\n      sstore\n        /* \"#utility.yul\":17071:17293   */\n      pop\n        /* \"#utility.yul\":16406:17293   */\n      jump(tag_328)\n        /* \"#utility.yul\":16436:17054   */\n    tag_329:\n        /* \"#utility.yul\":16488:16492   */\n      0x1f\n        /* \"#utility.yul\":16484:16493   */\n      not\n        /* \"#utility.yul\":16476:16482   */\n      dup5\n        /* \"#utility.yul\":16472:16494   */\n      and\n        /* \"#utility.yul\":16522:16559   */\n      tag_332\n        /* \"#utility.yul\":16554:16558   */\n      dup7\n        /* \"#utility.yul\":16522:16559   */\n      tag_151\n      jump\t// in\n    tag_332:\n        /* \"#utility.yul\":16581:16582   */\n      0x00\n        /* \"#utility.yul\":16595:16803   */\n    tag_333:\n        /* \"#utility.yul\":16609:16616   */\n      dup3\n        /* \"#utility.yul\":16606:16607   */\n      dup2\n        /* \"#utility.yul\":16603:16617   */\n      lt\n        /* \"#utility.yul\":16595:16803   */\n      iszero\n      tag_335\n      jumpi\n        /* \"#utility.yul\":16688:16697   */\n      dup5\n        /* \"#utility.yul\":16683:16686   */\n      dup10\n        /* \"#utility.yul\":16679:16698   */\n      add\n        /* \"#utility.yul\":16673:16699   */\n      mload\n        /* \"#utility.yul\":16665:16671   */\n      dup3\n        /* \"#utility.yul\":16658:16700   */\n      sstore\n        /* \"#utility.yul\":16739:16740   */\n      0x01\n        /* \"#utility.yul\":16731:16737   */\n      dup3\n        /* \"#utility.yul\":16727:16741   */\n      add\n        /* \"#utility.yul\":16717:16741   */\n      swap2\n      pop\n        /* \"#utility.yul\":16786:16788   */\n      0x20\n        /* \"#utility.yul\":16775:16784   */\n      dup6\n        /* \"#utility.yul\":16771:16789   */\n      add\n        /* \"#utility.yul\":16758:16789   */\n      swap5\n      pop\n        /* \"#utility.yul\":16632:16636   */\n      0x20\n        /* \"#utility.yul\":16629:16630   */\n      dup2\n        /* \"#utility.yul\":16625:16637   */\n      add\n        /* \"#utility.yul\":16620:16637   */\n      swap1\n      pop\n        /* \"#utility.yul\":16595:16803   */\n      jump(tag_333)\n    tag_335:\n        /* \"#utility.yul\":16831:16837   */\n      dup7\n        /* \"#utility.yul\":16822:16829   */\n      dup4\n        /* \"#utility.yul\":16819:16838   */\n      lt\n        /* \"#utility.yul\":16816:16995   */\n      iszero\n      tag_336\n      jumpi\n        /* \"#utility.yul\":16889:16898   */\n      dup5\n        /* \"#utility.yul\":16884:16887   */\n      dup10\n        /* \"#utility.yul\":16880:16899   */\n      add\n        /* \"#utility.yul\":16874:16900   */\n      mload\n        /* \"#utility.yul\":16932:16980   */\n      tag_337\n        /* \"#utility.yul\":16974:16978   */\n      0x1f\n        /* \"#utility.yul\":16966:16972   */\n      dup10\n        /* \"#utility.yul\":16962:16979   */\n      and\n        /* \"#utility.yul\":16951:16960   */\n      dup3\n        /* \"#utility.yul\":16932:16980   */\n      tag_164\n      jump\t// in\n    tag_337:\n        /* \"#utility.yul\":16924:16930   */\n      dup4\n        /* \"#utility.yul\":16917:16981   */\n      sstore\n        /* \"#utility.yul\":16839:16995   */\n      pop\n        /* \"#utility.yul\":16816:16995   */\n    tag_336:\n        /* \"#utility.yul\":17041:17042   */\n      0x01\n        /* \"#utility.yul\":17037:17038   */\n      0x02\n        /* \"#utility.yul\":17029:17035   */\n      dup9\n        /* \"#utility.yul\":17025:17039   */\n      mul\n        /* \"#utility.yul\":17021:17043   */\n      add\n        /* \"#utility.yul\":17015:17019   */\n      dup9\n        /* \"#utility.yul\":17008:17044   */\n      sstore\n        /* \"#utility.yul\":16443:17054   */\n      pop\n      pop\n      pop\n        /* \"#utility.yul\":16406:17293   */\n    tag_328:\n      pop\n        /* \"#utility.yul\":15996:17299   */\n      pop\n      pop\n      pop\n        /* \"#utility.yul\":15904:17299   */\n      pop\n      pop\n      jump\t// out\n        /* \"#utility.yul\":17305:17527   */\n    tag_166:\n        /* \"#utility.yul\":17445:17479   */\n      0x796f75206d7573742073656e64206120646f6e6174696f6f6e2076616c6f7220\n        /* \"#utility.yul\":17441:17442   */\n      0x00\n        /* \"#utility.yul\":17433:17439   */\n      dup3\n        /* \"#utility.yul\":17429:17443   */\n      add\n        /* \"#utility.yul\":17422:17480   */\n      mstore\n        /* \"#utility.yul\":17514:17519   */\n      0x3e20300000000000000000000000000000000000000000000000000000000000\n        /* \"#utility.yul\":17509:17511   */\n      0x20\n        /* \"#utility.yul\":17501:17507   */\n      dup3\n        /* \"#utility.yul\":17497:17512   */\n      add\n        /* \"#utility.yul\":17490:17520   */\n      mstore\n        /* \"#utility.yul\":17305:17527   */\n      pop\n      jump\t// out\n        /* \"#utility.yul\":17533:17899   */\n    tag_167:\n        /* \"#utility.yul\":17675:17678   */\n      0x00\n        /* \"#utility.yul\":17696:17763   */\n      tag_340\n        /* \"#utility.yul\":17760:17762   */\n      0x23\n        /* \"#utility.yul\":17755:17758   */\n      dup4\n        /* \"#utility.yul\":17696:17763   */\n      tag_126\n      jump\t// in\n    tag_340:\n        /* \"#utility.yul\":17689:17763   */\n      swap2\n      pop\n        /* \"#utility.yul\":17772:17865   */\n      tag_341\n        /* \"#utility.yul\":17861:17864   */\n      dup3\n        /* \"#utility.yul\":17772:17865   */\n      tag_166\n      jump\t// in\n    tag_341:\n        /* \"#utility.yul\":17890:17892   */\n      0x40\n        /* \"#utility.yul\":17885:17888   */\n      dup3\n        /* \"#utility.yul\":17881:17893   */\n      add\n        /* \"#utility.yul\":17874:17893   */\n      swap1\n      pop\n        /* \"#utility.yul\":17533:17899   */\n      swap2\n      swap1\n      pop\n      jump\t// out\n        /* \"#utility.yul\":17905:18324   */\n    tag_110:\n        /* \"#utility.yul\":18071:18075   */\n      0x00\n        /* \"#utility.yul\":18109:18111   */\n      0x20\n        /* \"#utility.yul\":18098:18107   */\n      dup3\n        /* \"#utility.yul\":18094:18112   */\n      add\n        /* \"#utility.yul\":18086:18112   */\n      swap1\n      pop\n        /* \"#utility.yul\":18158:18167   */\n      dup2\n        /* \"#utility.yul\":18152:18156   */\n      dup2\n        /* \"#utility.yul\":18148:18168   */\n      sub\n        /* \"#utility.yul\":18144:18145   */\n      0x00\n        /* \"#utility.yul\":18133:18142   */\n      dup4\n        /* \"#utility.yul\":18129:18146   */\n      add\n        /* \"#utility.yul\":18122:18169   */\n      mstore\n        /* \"#utility.yul\":18186:18317   */\n      tag_343\n        /* \"#utility.yul\":18312:18316   */\n      dup2\n        /* \"#utility.yul\":18186:18317   */\n      tag_167\n      jump\t// in\n    tag_343:\n        /* \"#utility.yul\":18178:18317   */\n      swap1\n      pop\n        /* \"#utility.yul\":17905:18324   */\n      swap2\n      swap1\n      pop\n      jump\t// out\n        /* \"#utility.yul\":18330:18510   */\n    tag_168:\n        /* \"#utility.yul\":18470:18502   */\n      0x43616e6e6f7420646f6e61746520746f20746869732063616d706169676e0000\n        /* \"#utility.yul\":18466:18467   */\n      0x00\n        /* \"#utility.yul\":18458:18464   */\n      dup3\n        /* \"#utility.yul\":18454:18468   */\n      add\n        /* \"#utility.yul\":18447:18503   */\n      mstore\n        /* \"#utility.yul\":18330:18510   */\n      pop\n      jump\t// out\n        /* \"#utility.yul\":18516:18882   */\n    tag_169:\n        /* \"#utility.yul\":18658:18661   */\n      0x00\n        /* \"#utility.yul\":18679:18746   */\n      tag_346\n        /* \"#utility.yul\":18743:18745   */\n      0x1e\n        /* \"#utility.yul\":18738:18741   */\n      dup4\n        /* \"#utility.yul\":18679:18746   */\n      tag_126\n      jump\t// in\n    tag_346:\n        /* \"#utility.yul\":18672:18746   */\n      swap2\n      pop\n        /* \"#utility.yul\":18755:18848   */\n      tag_347\n        /* \"#utility.yul\":18844:18847   */\n      dup3\n        /* \"#utility.yul\":18755:18848   */\n      tag_168\n      jump\t// in\n    tag_347:\n        /* \"#utility.yul\":18873:18875   */\n      0x20\n        /* \"#utility.yul\":18868:18871   */\n      dup3\n        /* \"#utility.yul\":18864:18876   */\n      add\n        /* \"#utility.yul\":18857:18876   */\n      swap1\n      pop\n        /* \"#utility.yul\":18516:18882   */\n      swap2\n      swap1\n      pop\n      jump\t// out\n        /* \"#utility.yul\":18888:19307   */\n    tag_113:\n        /* \"#utility.yul\":19054:19058   */\n      0x00\n        /* \"#utility.yul\":19092:19094   */\n      0x20\n        /* \"#utility.yul\":19081:19090   */\n      dup3\n        /* \"#utility.yul\":19077:19095   */\n      add\n        /* \"#utility.yul\":19069:19095   */\n      swap1\n      pop\n        /* \"#utility.yul\":19141:19150   */\n      dup2\n        /* \"#utility.yul\":19135:19139   */\n      dup2\n        /* \"#utility.yul\":19131:19151   */\n      sub\n        /* \"#utility.yul\":19127:19128   */\n      0x00\n        /* \"#utility.yul\":19116:19125   */\n      dup4\n        /* \"#utility.yul\":19112:19129   */\n      add\n        /* \"#utility.yul\":19105:19152   */\n      mstore\n        /* \"#utility.yul\":19169:19300   */\n      tag_349\n        /* \"#utility.yul\":19295:19299   */\n      dup2\n        /* \"#utility.yul\":19169:19300   */\n      tag_169\n      jump\t// in\n    tag_349:\n        /* \"#utility.yul\":19161:19300   */\n      swap1\n      pop\n        /* \"#utility.yul\":18888:19307   */\n      swap2\n      swap1\n      pop\n      jump\t// out\n        /* \"#utility.yul\":19313:19504   */\n    tag_115:\n        /* \"#utility.yul\":19353:19356   */\n      0x00\n        /* \"#utility.yul\":19372:19392   */\n      tag_351\n        /* \"#utility.yul\":19390:19391   */\n      dup3\n        /* \"#utility.yul\":19372:19392   */\n      tag_119\n      jump\t// in\n    tag_351:\n        /* \"#utility.yul\":19367:19392   */\n      swap2\n      pop\n        /* \"#utility.yul\":19406:19426   */\n      tag_352\n        /* \"#utility.yul\":19424:19425   */\n      dup4\n        /* \"#utility.yul\":19406:19426   */\n      tag_119\n      jump\t// in\n    tag_352:\n        /* \"#utility.yul\":19401:19426   */\n      swap3\n      pop\n        /* \"#utility.yul\":19449:19450   */\n      dup3\n        /* \"#utility.yul\":19446:19447   */\n      dup3\n        /* \"#utility.yul\":19442:19451   */\n      add\n        /* \"#utility.yul\":19435:19451   */\n      swap1\n      pop\n        /* \"#utility.yul\":19470:19473   */\n      dup1\n        /* \"#utility.yul\":19467:19468   */\n      dup3\n        /* \"#utility.yul\":19464:19474   */\n      gt\n        /* \"#utility.yul\":19461:19497   */\n      iszero\n      tag_353\n      jumpi\n        /* \"#utility.yul\":19477:19495   */\n      tag_354\n      tag_144\n      jump\t// in\n    tag_354:\n        /* \"#utility.yul\":19461:19497   */\n    tag_353:\n        /* \"#utility.yul\":19313:19504   */\n      swap3\n      swap2\n      pop\n      pop\n      jump\t// out\n\n    auxdata: 0xa2646970667358221220fe1fadb6384ae7e91354fec5653c517561ee69c5fd20b4a9d665b943a6000d3864736f6c634300081e0033\n}\n",
				"bytecode": {
					"linkReferences": {},
					"object": "608060405260645f555f6001553480156016575f5ffd5b50611670806100245f395ff3fe608060405260043610610054575f3560e01c80632e1a7d4d146100585780634013be101461008057806361b8ce8c146100c2578063ddca3f43146100ec578063ec67148614610116578063f14faf6f1461013e575b5f5ffd5b348015610063575f5ffd5b5061007e60048036038101906100799190610c80565b61015a565b005b34801561008b575f5ffd5b506100a660048036038101906100a19190610c80565b610613565b6040516100b99796959493929190610d83565b60405180910390f35b3480156100cd575f5ffd5b506100d6610894565b6040516100e39190610e0c565b60405180910390f35b3480156100f7575f5ffd5b5061010061089a565b60405161010d9190610e0c565b60405180910390f35b348015610121575f5ffd5b5061013c60048036038101906101379190610e86565b61089f565b005b61015860048036038101906101539190610c80565b610b1d565b005b5f60025f8381526020019081526020015f206040518060e00160405290815f82015f9054906101000a900473ffffffffffffffffffffffffffffffffffffffff1673ffffffffffffffffffffffffffffffffffffffff1673ffffffffffffffffffffffffffffffffffffffff1681526020016001820180546101db90610f97565b80601f016020809104026020016040519081016040528092919081815260200182805461020790610f97565b80156102525780601f1061022957610100808354040283529160200191610252565b820191905f5260205f20905b81548152906001019060200180831161023557829003601f168201915b5050505050815260200160028201805461026b90610f97565b80601f016020809104026020016040519081016040528092919081815260200182805461029790610f97565b80156102e25780601f106102b9576101008083540402835291602001916102e2565b820191905f5260205f20905b8154815290600101906020018083116102c557829003601f168201915b505050505081526020016003820180546102fb90610f97565b80601f016020809104026020016040519081016040528092919081815260200182805461032790610f97565b80156103725780601f1061034957610100808354040283529160200191610372565b820191905f5260205f20905b81548152906001019060200180831161035557829003601f168201915b5050505050815260200160048201805461038b90610f97565b80601f01602080910402602001604051908101604052809291908181526020018280546103b790610f97565b80156104025780601f106103d957610100808354040283529160200191610402565b820191905f5260205f20905b8154815290600101906020018083116103e557829003601f168201915b5050505050815260200160058201548152602001600682015f9054906101000a900460ff16151515158152505090503373ffffffffffffffffffffffffffffffffffffffff16815f015173ffffffffffffffffffffffffffffffffffffffff16146104a2576040517f08c379a000000000000000000000000000000000000000000000000000000000815260040161049990611011565b60405180910390fd5b600115158160c001511515146104ed576040517f08c379a00000000000000000000000000000000000000000000000000000000081526004016104e490611079565b60405180910390fd5b5f548160a0015111610534576040517f08c379a000000000000000000000000000000000000000000000000000000000815260040161052b90611107565b60405180910390fd5b5f5f548260a001516105469190611152565b90505f8260c00190151590811515815250505f8260a00181815250505f825f015173ffffffffffffffffffffffffffffffffffffffff168260405161058a906111b2565b5f6040518083038185875af1925050503d805f81146105c4576040519150601f19603f3d011682016040523d82523d5f602084013e6105c9565b606091505b505090508061060d576040517f08c379a000000000000000000000000000000000000000000000000000000000815260040161060490611210565b60405180910390fd5b50505050565b6002602052805f5260405f205f91509050805f015f9054906101000a900473ffffffffffffffffffffffffffffffffffffffff169080600101805461065790610f97565b80601f016020809104026020016040519081016040528092919081815260200182805461068390610f97565b80156106ce5780601f106106a5576101008083540402835291602001916106ce565b820191905f5260205f20905b8154815290600101906020018083116106b157829003601f168201915b5050505050908060020180546106e390610f97565b80601f016020809104026020016040519081016040528092919081815260200182805461070f90610f97565b801561075a5780601f106107315761010080835404028352916020019161075a565b820191905f5260205f20905b81548152906001019060200180831161073d57829003601f168201915b50505050509080600301805461076f90610f97565b80601f016020809104026020016040519081016040528092919081815260200182805461079b90610f97565b80156107e65780601f106107bd576101008083540402835291602001916107e6565b820191905f5260205f20905b8154815290600101906020018083116107c957829003601f168201915b5050505050908060040180546107fb90610f97565b80601f016020809104026020016040519081016040528092919081815260200182805461082790610f97565b80156108725780601f1061084957610100808354040283529160200191610872565b820191905f5260205f20905b81548152906001019060200180831161085557829003601f168201915b505050505090806005015490806006015f9054906101000a900460ff16905087565b60015481565b5f5481565b6108a7610bf3565b88888080601f0160208091040260200160405190810160405280939291908181526020018383808284375f81840152601f19601f82011690508083019250505050505050816020018190525086868080601f0160208091040260200160405190810160405280939291908181526020018383808284375f81840152601f19601f82011690508083019250505050505050816040018190525084848080601f0160208091040260200160405190810160405280939291908181526020018383808284375f81840152601f19601f82011690508083019250505050505050816060018190525082828080601f0160208091040260200160405190810160405280939291908181526020018383808284375f81840152601f19601f82011690508083019250505050505050816080018190525060018160c001901515908115158152505033815f019073ffffffffffffffffffffffffffffffffffffffff16908173ffffffffffffffffffffffffffffffffffffffff168152505060015f815480929190610a319061122e565b91905055508060025f60015481526020019081526020015f205f820151815f015f6101000a81548173ffffffffffffffffffffffffffffffffffffffff021916908373ffffffffffffffffffffffffffffffffffffffff1602179055506020820151816001019081610aa39190611442565b506040820151816002019081610ab99190611442565b506060820151816003019081610acf9190611442565b506080820151816004019081610ae59190611442565b5060a0820151816005015560c0820151816006015f6101000a81548160ff021916908315150217905550905050505050505050505050565b5f3411610b5f576040517f08c379a0000000000000000000000000000000000000000000000000000000008152600401610b5690611581565b60405180910390fd5b6001151560025f8381526020019081526020015f206006015f9054906101000a900460ff16151514610bc6576040517f08c379a0000000000000000000000000000000000000000000000000000000008152600401610bbd906115e9565b60405180910390fd5b3460025f8381526020019081526020015f206005015f828254610be99190611607565b9250508190555050565b6040518060e001604052805f73ffffffffffffffffffffffffffffffffffffffff168152602001606081526020016060815260200160608152602001606081526020015f81526020015f151581525090565b5f5ffd5b5f5ffd5b5f819050919050565b610c5f81610c4d565b8114610c69575f5ffd5b50565b5f81359050610c7a81610c56565b92915050565b5f60208284031215610c9557610c94610c45565b5b5f610ca284828501610c6c565b91505092915050565b5f73ffffffffffffffffffffffffffffffffffffffff82169050919050565b5f610cd482610cab565b9050919050565b610ce481610cca565b82525050565b5f81519050919050565b5f82825260208201905092915050565b8281835e5f83830152505050565b5f601f19601f8301169050919050565b5f610d2c82610cea565b610d368185610cf4565b9350610d46818560208601610d04565b610d4f81610d12565b840191505092915050565b610d6381610c4d565b82525050565b5f8115159050919050565b610d7d81610d69565b82525050565b5f60e082019050610d965f83018a610cdb565b8181036020830152610da88189610d22565b90508181036040830152610dbc8188610d22565b90508181036060830152610dd08187610d22565b90508181036080830152610de48186610d22565b9050610df360a0830185610d5a565b610e0060c0830184610d74565b98975050505050505050565b5f602082019050610e1f5f830184610d5a565b92915050565b5f5ffd5b5f5ffd5b5f5ffd5b5f5f83601f840112610e4657610e45610e25565b5b8235905067ffffffffffffffff811115610e6357610e62610e29565b5b602083019150836001820283011115610e7f57610e7e610e2d565b5b9250929050565b5f5f5f5f5f5f5f5f6080898b031215610ea257610ea1610c45565b5b5f89013567ffffffffffffffff811115610ebf57610ebe610c49565b5b610ecb8b828c01610e31565b9850985050602089013567ffffffffffffffff811115610eee57610eed610c49565b5b610efa8b828c01610e31565b9650965050604089013567ffffffffffffffff811115610f1d57610f1c610c49565b5b610f298b828c01610e31565b9450945050606089013567ffffffffffffffff811115610f4c57610f4b610c49565b5b610f588b828c01610e31565b92509250509295985092959890939650565b7f4e487b71000000000000000000000000000000000000000000000000000000005f52602260045260245ffd5b5f6002820490506001821680610fae57607f821691505b602082108103610fc157610fc0610f6a565b5b50919050565b7f596f7520646f206e6f742068617665207065726d6974696f6e000000000000005f82015250565b5f610ffb601983610cf4565b915061100682610fc7565b602082019050919050565b5f6020820190508181035f83015261102881610fef565b9050919050565b7f746869732063616d706169676e20697320636c6f7365640000000000000000005f82015250565b5f611063601783610cf4565b915061106e8261102f565b602082019050919050565b5f6020820190508181035f83015261109081611057565b9050919050565b7f746869732063616d706169676e20646f73206e6f74206861766520656e6f75675f8201527f682062616c616e63650000000000000000000000000000000000000000000000602082015250565b5f6110f1602983610cf4565b91506110fc82611097565b604082019050919050565b5f6020820190508181035f83015261111e816110e5565b9050919050565b7f4e487b71000000000000000000000000000000000000000000000000000000005f52601160045260245ffd5b5f61115c82610c4d565b915061116783610c4d565b925082820390508181111561117f5761117e611125565b5b92915050565b5f81905092915050565b50565b5f61119d5f83611185565b91506111a88261118f565b5f82019050919050565b5f6111bc82611192565b9150819050919050565b7f46616c6861206e61207472616e73666572656e636961000000000000000000005f82015250565b5f6111fa601683610cf4565b9150611205826111c6565b602082019050919050565b5f6020820190508181035f830152611227816111ee565b9050919050565b5f61123882610c4d565b91507fffffffffffffffffffffffffffffffffffffffffffffffffffffffffffffffff820361126a57611269611125565b5b600182019050919050565b7f4e487b71000000000000000000000000000000000000000000000000000000005f52604160045260245ffd5b5f819050815f5260205f209050919050565b5f6020601f8301049050919050565b5f82821b905092915050565b5f600883026112fe7fffffffffffffffffffffffffffffffffffffffffffffffffffffffffffffffff826112c3565b61130886836112c3565b95508019841693508086168417925050509392505050565b5f819050919050565b5f61134361133e61133984610c4d565b611320565b610c4d565b9050919050565b5f819050919050565b61135c83611329565b6113706113688261134a565b8484546112cf565b825550505050565b5f5f905090565b611387611378565b611392818484611353565b505050565b5b818110156113b5576113aa5f8261137f565b600181019050611398565b5050565b601f8211156113fa576113cb816112a2565b6113d4846112b4565b810160208510156113e3578190505b6113f76113ef856112b4565b830182611397565b50505b505050565b5f82821c905092915050565b5f61141a5f19846008026113ff565b1980831691505092915050565b5f611432838361140b565b9150826002028217905092915050565b61144b82610cea565b67ffffffffffffffff81111561146457611463611275565b5b61146e8254610f97565b6114798282856113b9565b5f60209050601f8311600181146114aa575f8415611498578287015190505b6114a28582611427565b865550611509565b601f1984166114b8866112a2565b5f5b828110156114df578489015182556001820191506020850194506020810190506114ba565b868310156114fc57848901516114f8601f89168261140b565b8355505b6001600288020188555050505b505050505050565b7f796f75206d7573742073656e64206120646f6e6174696f6f6e2076616c6f72205f8201527f3e20300000000000000000000000000000000000000000000000000000000000602082015250565b5f61156b602383610cf4565b915061157682611511565b604082019050919050565b5f6020820190508181035f8301526115988161155f565b9050919050565b7f43616e6e6f7420646f6e61746520746f20746869732063616d706169676e00005f82015250565b5f6115d3601e83610cf4565b91506115de8261159f565b602082019050919050565b5f6020820190508181035f830152611600816115c7565b9050919050565b5f61161182610c4d565b915061161c83610c4d565b925082820190508082111561163457611633611125565b5b9291505056fea2646970667358221220fe1fadb6384ae7e91354fec5653c517561ee69c5fd20b4a9d665b943a6000d3864736f6c634300081e0033",
					"opcodes": "PUSH1 0x80 PUSH1 0x40 MSTORE PUSH1 0x64 PUSH0 SSTORE PUSH0 PUSH1 0x1 SSTORE CALLVALUE DUP1 ISZERO PUSH1 0x16 JUMPI PUSH0 PUSH0 REVERT JUMPDEST POP PUSH2 0x1670 DUP1 PUSH2 0x24 PUSH0 CODECOPY PUSH0 RETURN INVALID PUSH1 0x80 PUSH1 0x40 MSTORE PUSH1 0x4 CALLDATASIZE LT PUSH2 0x54 JUMPI PUSH0 CALLDATALOAD PUSH1 0xE0 SHR DUP1 PUSH4 0x2E1A7D4D EQ PUSH2 0x58 JUMPI DUP1 PUSH4 0x4013BE10 EQ PUSH2 0x80 JUMPI DUP1 PUSH4 0x61B8CE8C EQ PUSH2 0xC2 JUMPI DUP1 PUSH4 0xDDCA3F43 EQ PUSH2 0xEC JUMPI DUP1 PUSH4 0xEC671486 EQ PUSH2 0x116 JUMPI DUP1 PUSH4 0xF14FAF6F EQ PUSH2 0x13E JUMPI JUMPDEST PUSH0 PUSH0 REVERT JUMPDEST CALLVALUE DUP1 ISZERO PUSH2 0x63 JUMPI PUSH0 PUSH0 REVERT JUMPDEST POP PUSH2 0x7E PUSH1 0x4 DUP1 CALLDATASIZE SUB DUP2 ADD SWAP1 PUSH2 0x79 SWAP2 SWAP1 PUSH2 0xC80 JUMP JUMPDEST PUSH2 0x15A JUMP JUMPDEST STOP JUMPDEST CALLVALUE DUP1 ISZERO PUSH2 0x8B JUMPI PUSH0 PUSH0 REVERT JUMPDEST POP PUSH2 0xA6 PUSH1 0x4 DUP1 CALLDATASIZE SUB DUP2 ADD SWAP1 PUSH2 0xA1 SWAP2 SWAP1 PUSH2 0xC80 JUMP JUMPDEST PUSH2 0x613 JUMP JUMPDEST PUSH1 0x40 MLOAD PUSH2 0xB9 SWAP8 SWAP7 SWAP6 SWAP5 SWAP4 SWAP3 SWAP2 SWAP1 PUSH2 0xD83 JUMP JUMPDEST PUSH1 0x40 MLOAD DUP1 SWAP2 SUB SWAP1 RETURN JUMPDEST CALLVALUE DUP1 ISZERO PUSH2 0xCD JUMPI PUSH0 PUSH0 REVERT JUMPDEST POP PUSH2 0xD6 PUSH2 0x894 JUMP JUMPDEST PUSH1 0x40 MLOAD PUSH2 0xE3 SWAP2 SWAP1 PUSH2 0xE0C JUMP JUMPDEST PUSH1 0x40 MLOAD DUP1 SWAP2 SUB SWAP1 RETURN JUMPDEST CALLVALUE DUP1 ISZERO PUSH2 0xF7 JUMPI PUSH0 PUSH0 REVERT JUMPDEST POP PUSH2 0x100 PUSH2 0x89A JUMP JUMPDEST PUSH1 0x40 MLOAD PUSH2 0x10D SWAP2 SWAP1 PUSH2 0xE0C JUMP JUMPDEST PUSH1 0x40 MLOAD DUP1 SWAP2 SUB SWAP1 RETURN JUMPDEST CALLVALUE DUP1 ISZERO PUSH2 0x121 JUMPI PUSH0 PUSH0 REVERT JUMPDEST POP PUSH2 0x13C PUSH1 0x4 DUP1 CALLDATASIZE SUB DUP2 ADD SWAP1 PUSH2 0x137 SWAP2 SWAP1 PUSH2 0xE86 JUMP JUMPDEST PUSH2 0x89F JUMP JUMPDEST STOP JUMPDEST PUSH2 0x158 PUSH1 0x4 DUP1 CALLDATASIZE SUB DUP2 ADD SWAP1 PUSH2 0x153 SWAP2 SWAP1 PUSH2 0xC80 JUMP JUMPDEST PUSH2 0xB1D JUMP JUMPDEST STOP JUMPDEST PUSH0 PUSH1 0x2 PUSH0 DUP4 DUP2 MSTORE PUSH1 0x20 ADD SWAP1 DUP2 MSTORE PUSH1 0x20 ADD PUSH0 KECCAK256 PUSH1 0x40 MLOAD DUP1 PUSH1 0xE0 ADD PUSH1 0x40 MSTORE SWAP1 DUP2 PUSH0 DUP3 ADD PUSH0 SWAP1 SLOAD SWAP1 PUSH2 0x100 EXP SWAP1 DIV PUSH20 0xFFFFFFFFFFFFFFFFFFFFFFFFFFFFFFFFFFFFFFFF AND PUSH20 0xFFFFFFFFFFFFFFFFFFFFFFFFFFFFFFFFFFFFFFFF AND PUSH20 0xFFFFFFFFFFFFFFFFFFFFFFFFFFFFFFFFFFFFFFFF AND DUP2 MSTORE PUSH1 0x20 ADD PUSH1 0x1 DUP3 ADD DUP1 SLOAD PUSH2 0x1DB SWAP1 PUSH2 0xF97 JUMP JUMPDEST DUP1 PUSH1 0x1F ADD PUSH1 0x20 DUP1 SWAP2 DIV MUL PUSH1 0x20 ADD PUSH1 0x40 MLOAD SWAP1 DUP2 ADD PUSH1 0x40 MSTORE DUP1 SWAP3 SWAP2 SWAP1 DUP2 DUP2 MSTORE PUSH1 0x20 ADD DUP3 DUP1 SLOAD PUSH2 0x207 SWAP1 PUSH2 0xF97 JUMP JUMPDEST DUP1 ISZERO PUSH2 0x252 JUMPI DUP1 PUSH1 0x1F LT PUSH2 0x229 JUMPI PUSH2 0x100 DUP1 DUP4 SLOAD DIV MUL DUP4 MSTORE SWAP2 PUSH1 0x20 ADD SWAP2 PUSH2 0x252 JUMP JUMPDEST DUP3 ADD SWAP2 SWAP1 PUSH0 MSTORE PUSH1 0x20 PUSH0 KECCAK256 SWAP1 JUMPDEST DUP2 SLOAD DUP2 MSTORE SWAP1 PUSH1 0x1 ADD SWAP1 PUSH1 0x20 ADD DUP1 DUP4 GT PUSH2 0x235 JUMPI DUP3 SWAP1 SUB PUSH1 0x1F AND DUP3 ADD SWAP2 JUMPDEST POP POP POP POP POP DUP2 MSTORE PUSH1 0x20 ADD PUSH1 0x2 DUP3 ADD DUP1 SLOAD PUSH2 0x26B SWAP1 PUSH2 0xF97 JUMP JUMPDEST DUP1 PUSH1 0x1F ADD PUSH1 0x20 DUP1 SWAP2 DIV MUL PUSH1 0x20 ADD PUSH1 0x40 MLOAD SWAP1 DUP2 ADD PUSH1 0x40 MSTORE DUP1 SWAP3 SWAP2 SWAP1 DUP2 DUP2 MSTORE PUSH1 0x20 ADD DUP3 DUP1 SLOAD PUSH2 0x297 SWAP1 PUSH2 0xF97 JUMP JUMPDEST DUP1 ISZERO PUSH2 0x2E2 JUMPI DUP1 PUSH1 0x1F LT PUSH2 0x2B9 JUMPI PUSH2 0x100 DUP1 DUP4 SLOAD DIV MUL DUP4 MSTORE SWAP2 PUSH1 0x20 ADD SWAP2 PUSH2 0x2E2 JUMP JUMPDEST DUP3 ADD SWAP2 SWAP1 PUSH0 MSTORE PUSH1 0x20 PUSH0 KECCAK256 SWAP1 JUMPDEST DUP2 SLOAD DUP2 MSTORE SWAP1 PUSH1 0x1 ADD SWAP1 PUSH1 0x20 ADD DUP1 DUP4 GT PUSH2 0x2C5 JUMPI DUP3 SWAP1 SUB PUSH1 0x1F AND DUP3 ADD SWAP2 JUMPDEST POP POP POP POP POP DUP2 MSTORE PUSH1 0x20 ADD PUSH1 0x3 DUP3 ADD DUP1 SLOAD PUSH2 0x2FB SWAP1 PUSH2 0xF97 JUMP JUMPDEST DUP1 PUSH1 0x1F ADD PUSH1 0x20 DUP1 SWAP2 DIV MUL PUSH1 0x20 ADD PUSH1 0x40 MLOAD SWAP1 DUP2 ADD PUSH1 0x40 MSTORE DUP1 SWAP3 SWAP2 SWAP1 DUP2 DUP2 MSTORE PUSH1 0x20 ADD DUP3 DUP1 SLOAD PUSH2 0x327 SWAP1 PUSH2 0xF97 JUMP JUMPDEST DUP1 ISZERO PUSH2 0x372 JUMPI DUP1 PUSH1 0x1F LT PUSH2 0x349 JUMPI PUSH2 0x100 DUP1 DUP4 SLOAD DIV MUL DUP4 MSTORE SWAP2 PUSH1 0x20 ADD SWAP2 PUSH2 0x372 JUMP JUMPDEST DUP3 ADD SWAP2 SWAP1 PUSH0 MSTORE PUSH1 0x20 PUSH0 KECCAK256 SWAP1 JUMPDEST DUP2 SLOAD DUP2 MSTORE SWAP1 PUSH1 0x1 ADD SWAP1 PUSH1 0x20 ADD DUP1 DUP4 GT PUSH2 0x355 JUMPI DUP3 SWAP1 SUB PUSH1 0x1F AND DUP3 ADD SWAP2 JUMPDEST POP POP POP POP POP DUP2 MSTORE PUSH1 0x20 ADD PUSH1 0x4 DUP3 ADD DUP1 SLOAD PUSH2 0x38B SWAP1 PUSH2 0xF97 JUMP JUMPDEST DUP1 PUSH1 0x1F ADD PUSH1 0x20 DUP1 SWAP2 DIV MUL PUSH1 0x20 ADD PUSH1 0x40 MLOAD SWAP1 DUP2 ADD PUSH1 0x40 MSTORE DUP1 SWAP3 SWAP2 SWAP1 DUP2 DUP2 MSTORE PUSH1 0x20 ADD DUP3 DUP1 SLOAD PUSH2 0x3B7 SWAP1 PUSH2 0xF97 JUMP JUMPDEST DUP1 ISZERO PUSH2 0x402 JUMPI DUP1 PUSH1 0x1F LT PUSH2 0x3D9 JUMPI PUSH2 0x100 DUP1 DUP4 SLOAD DIV MUL DUP4 MSTORE SWAP2 PUSH1 0x20 ADD SWAP2 PUSH2 0x402 JUMP JUMPDEST DUP3 ADD SWAP2 SWAP1 PUSH0 MSTORE PUSH1 0x20 PUSH0 KECCAK256 SWAP1 JUMPDEST DUP2 SLOAD DUP2 MSTORE SWAP1 PUSH1 0x1 ADD SWAP1 PUSH1 0x20 ADD DUP1 DUP4 GT PUSH2 0x3E5 JUMPI DUP3 SWAP1 SUB PUSH1 0x1F AND DUP3 ADD SWAP2 JUMPDEST POP POP POP POP POP DUP2 MSTORE PUSH1 0x20 ADD PUSH1 0x5 DUP3 ADD SLOAD DUP2 MSTORE PUSH1 0x20 ADD PUSH1 0x6 DUP3 ADD PUSH0 SWAP1 SLOAD SWAP1 PUSH2 0x100 EXP SWAP1 DIV PUSH1 0xFF AND ISZERO ISZERO ISZERO ISZERO DUP2 MSTORE POP POP SWAP1 POP CALLER PUSH20 0xFFFFFFFFFFFFFFFFFFFFFFFFFFFFFFFFFFFFFFFF AND DUP2 PUSH0 ADD MLOAD PUSH20 0xFFFFFFFFFFFFFFFFFFFFFFFFFFFFFFFFFFFFFFFF AND EQ PUSH2 0x4A2 JUMPI PUSH1 0x40 MLOAD PUSH32 0x8C379A000000000000000000000000000000000000000000000000000000000 DUP2 MSTORE PUSH1 0x4 ADD PUSH2 0x499 SWAP1 PUSH2 0x1011 JUMP JUMPDEST PUSH1 0x40 MLOAD DUP1 SWAP2 SUB SWAP1 REVERT JUMPDEST PUSH1 0x1 ISZERO ISZERO DUP2 PUSH1 0xC0 ADD MLOAD ISZERO ISZERO EQ PUSH2 0x4ED JUMPI PUSH1 0x40 MLOAD PUSH32 0x8C379A000000000000000000000000000000000000000000000000000000000 DUP2 MSTORE PUSH1 0x4 ADD PUSH2 0x4E4 SWAP1 PUSH2 0x1079 JUMP JUMPDEST PUSH1 0x40 MLOAD DUP1 SWAP2 SUB SWAP1 REVERT JUMPDEST PUSH0 SLOAD DUP2 PUSH1 0xA0 ADD MLOAD GT PUSH2 0x534 JUMPI PUSH1 0x40 MLOAD PUSH32 0x8C379A000000000000000000000000000000000000000000000000000000000 DUP2 MSTORE PUSH1 0x4 ADD PUSH2 0x52B SWAP1 PUSH2 0x1107 JUMP JUMPDEST PUSH1 0x40 MLOAD DUP1 SWAP2 SUB SWAP1 REVERT JUMPDEST PUSH0 PUSH0 SLOAD DUP3 PUSH1 0xA0 ADD MLOAD PUSH2 0x546 SWAP2 SWAP1 PUSH2 0x1152 JUMP JUMPDEST SWAP1 POP PUSH0 DUP3 PUSH1 0xC0 ADD SWAP1 ISZERO ISZERO SWAP1 DUP2 ISZERO ISZERO DUP2 MSTORE POP POP PUSH0 DUP3 PUSH1 0xA0 ADD DUP2 DUP2 MSTORE POP POP PUSH0 DUP3 PUSH0 ADD MLOAD PUSH20 0xFFFFFFFFFFFFFFFFFFFFFFFFFFFFFFFFFFFFFFFF AND DUP3 PUSH1 0x40 MLOAD PUSH2 0x58A SWAP1 PUSH2 0x11B2 JUMP JUMPDEST PUSH0 PUSH1 0x40 MLOAD DUP1 DUP4 SUB DUP2 DUP6 DUP8 GAS CALL SWAP3 POP POP POP RETURNDATASIZE DUP1 PUSH0 DUP2 EQ PUSH2 0x5C4 JUMPI PUSH1 0x40 MLOAD SWAP2 POP PUSH1 0x1F NOT PUSH1 0x3F RETURNDATASIZE ADD AND DUP3 ADD PUSH1 0x40 MSTORE RETURNDATASIZE DUP3 MSTORE RETURNDATASIZE PUSH0 PUSH1 0x20 DUP5 ADD RETURNDATACOPY PUSH2 0x5C9 JUMP JUMPDEST PUSH1 0x60 SWAP2 POP JUMPDEST POP POP SWAP1 POP DUP1 PUSH2 0x60D JUMPI PUSH1 0x40 MLOAD PUSH32 0x8C379A000000000000000000000000000000000000000000000000000000000 DUP2 MSTORE PUSH1 0x4 ADD PUSH2 0x604 SWAP1 PUSH2 0x1210 JUMP JUMPDEST PUSH1 0x40 MLOAD DUP1 SWAP2 SUB SWAP1 REVERT JUMPDEST POP POP POP POP JUMP JUMPDEST PUSH1 0x2 PUSH1 0x20 MSTORE DUP1 PUSH0 MSTORE PUSH1 0x40 PUSH0 KECCAK256 PUSH0 SWAP2 POP SWAP1 POP DUP1 PUSH0 ADD PUSH0 SWAP1 SLOAD SWAP1 PUSH2 0x100 EXP SWAP1 DIV PUSH20 0xFFFFFFFFFFFFFFFFFFFFFFFFFFFFFFFFFFFFFFFF AND SWAP1 DUP1 PUSH1 0x1 ADD DUP1 SLOAD PUSH2 0x657 SWAP1 PUSH2 0xF97 JUMP JUMPDEST DUP1 PUSH1 0x1F ADD PUSH1 0x20 DUP1 SWAP2 DIV MUL PUSH1 0x20 ADD PUSH1 0x40 MLOAD SWAP1 DUP2 ADD PUSH1 0x40 MSTORE DUP1 SWAP3 SWAP2 SWAP1 DUP2 DUP2 MSTORE PUSH1 0x20 ADD DUP3 DUP1 SLOAD PUSH2 0x683 SWAP1 PUSH2 0xF97 JUMP JUMPDEST DUP1 ISZERO PUSH2 0x6CE JUMPI DUP1 PUSH1 0x1F LT PUSH2 0x6A5 JUMPI PUSH2 0x100 DUP1 DUP4 SLOAD DIV MUL DUP4 MSTORE SWAP2 PUSH1 0x20 ADD SWAP2 PUSH2 0x6CE JUMP JUMPDEST DUP3 ADD SWAP2 SWAP1 PUSH0 MSTORE PUSH1 0x20 PUSH0 KECCAK256 SWAP1 JUMPDEST DUP2 SLOAD DUP2 MSTORE SWAP1 PUSH1 0x1 ADD SWAP1 PUSH1 0x20 ADD DUP1 DUP4 GT PUSH2 0x6B1 JUMPI DUP3 SWAP1 SUB PUSH1 0x1F AND DUP3 ADD SWAP2 JUMPDEST POP POP POP POP POP SWAP1 DUP1 PUSH1 0x2 ADD DUP1 SLOAD PUSH2 0x6E3 SWAP1 PUSH2 0xF97 JUMP JUMPDEST DUP1 PUSH1 0x1F ADD PUSH1 0x20 DUP1 SWAP2 DIV MUL PUSH1 0x20 ADD PUSH1 0x40 MLOAD SWAP1 DUP2 ADD PUSH1 0x40 MSTORE DUP1 SWAP3 SWAP2 SWAP1 DUP2 DUP2 MSTORE PUSH1 0x20 ADD DUP3 DUP1 SLOAD PUSH2 0x70F SWAP1 PUSH2 0xF97 JUMP JUMPDEST DUP1 ISZERO PUSH2 0x75A JUMPI DUP1 PUSH1 0x1F LT PUSH2 0x731 JUMPI PUSH2 0x100 DUP1 DUP4 SLOAD DIV MUL DUP4 MSTORE SWAP2 PUSH1 0x20 ADD SWAP2 PUSH2 0x75A JUMP JUMPDEST DUP3 ADD SWAP2 SWAP1 PUSH0 MSTORE PUSH1 0x20 PUSH0 KECCAK256 SWAP1 JUMPDEST DUP2 SLOAD DUP2 MSTORE SWAP1 PUSH1 0x1 ADD SWAP1 PUSH1 0x20 ADD DUP1 DUP4 GT PUSH2 0x73D JUMPI DUP3 SWAP1 SUB PUSH1 0x1F AND DUP3 ADD SWAP2 JUMPDEST POP POP POP POP POP SWAP1 DUP1 PUSH1 0x3 ADD DUP1 SLOAD PUSH2 0x76F SWAP1 PUSH2 0xF97 JUMP JUMPDEST DUP1 PUSH1 0x1F ADD PUSH1 0x20 DUP1 SWAP2 DIV MUL PUSH1 0x20 ADD PUSH1 0x40 MLOAD SWAP1 DUP2 ADD PUSH1 0x40 MSTORE DUP1 SWAP3 SWAP2 SWAP1 DUP2 DUP2 MSTORE PUSH1 0x20 ADD DUP3 DUP1 SLOAD PUSH2 0x79B SWAP1 PUSH2 0xF97 JUMP JUMPDEST DUP1 ISZERO PUSH2 0x7E6 JUMPI DUP1 PUSH1 0x1F LT PUSH2 0x7BD JUMPI PUSH2 0x100 DUP1 DUP4 SLOAD DIV MUL DUP4 MSTORE SWAP2 PUSH1 0x20 ADD SWAP2 PUSH2 0x7E6 JUMP JUMPDEST DUP3 ADD SWAP2 SWAP1 PUSH0 MSTORE PUSH1 0x20 PUSH0 KECCAK256 SWAP1 JUMPDEST DUP2 SLOAD DUP2 MSTORE SWAP1 PUSH1 0x1 ADD SWAP1 PUSH1 0x20 ADD DUP1 DUP4 GT PUSH2 0x7C9 JUMPI DUP3 SWAP1 SUB PUSH1 0x1F AND DUP3 ADD SWAP2 JUMPDEST POP POP POP POP POP SWAP1 DUP1 PUSH1 0x4 ADD DUP1 SLOAD PUSH2 0x7FB SWAP1 PUSH2 0xF97 JUMP JUMPDEST DUP1 PUSH1 0x1F ADD PUSH1 0x20 DUP1 SWAP2 DIV MUL PUSH1 0x20 ADD PUSH1 0x40 MLOAD SWAP1 DUP2 ADD PUSH1 0x40 MSTORE DUP1 SWAP3 SWAP2 SWAP1 DUP2 DUP2 MSTORE PUSH1 0x20 ADD DUP3 DUP1 SLOAD PUSH2 0x827 SWAP1 PUSH2 0xF97 JUMP JUMPDEST DUP1 ISZERO PUSH2 0x872 JUMPI DUP1 PUSH1 0x1F LT PUSH2 0x849 JUMPI PUSH2 0x100 DUP1 DUP4 SLOAD DIV MUL DUP4 MSTORE SWAP2 PUSH1 0x20 ADD SWAP2 PUSH2 0x872 JUMP JUMPDEST DUP3 ADD SWAP2 SWAP1 PUSH0 MSTORE PUSH1 0x20 PUSH0 KECCAK256 SWAP1 JUMPDEST DUP2 SLOAD DUP2 MSTORE SWAP1 PUSH1 0x1 ADD SWAP1 PUSH1 0x20 ADD DUP1 DUP4 GT PUSH2 0x855 JUMPI DUP3 SWAP1 SUB PUSH1 0x1F AND DUP3 ADD SWAP2 JUMPDEST POP POP POP POP POP SWAP1 DUP1 PUSH1 0x5 ADD SLOAD SWAP1 DUP1 PUSH1 0x6 ADD PUSH0 SWAP1 SLOAD SWAP1 PUSH2 0x100 EXP SWAP1 DIV PUSH1 0xFF AND SWAP1 POP DUP8 JUMP JUMPDEST PUSH1 0x1 SLOAD DUP2 JUMP JUMPDEST PUSH0 SLOAD DUP2 JUMP JUMPDEST PUSH2 0x8A7 PUSH2 0xBF3 JUMP JUMPDEST DUP9 DUP9 DUP1 DUP1 PUSH1 0x1F ADD PUSH1 0x20 DUP1 SWAP2 DIV MUL PUSH1 0x20 ADD PUSH1 0x40 MLOAD SWAP1 DUP2 ADD PUSH1 0x40 MSTORE DUP1 SWAP4 SWAP3 SWAP2 SWAP1 DUP2 DUP2 MSTORE PUSH1 0x20 ADD DUP4 DUP4 DUP1 DUP3 DUP5 CALLDATACOPY PUSH0 DUP2 DUP5 ADD MSTORE PUSH1 0x1F NOT PUSH1 0x1F DUP3 ADD AND SWAP1 POP DUP1 DUP4 ADD SWAP3 POP POP POP POP POP POP POP DUP2 PUSH1 0x20 ADD DUP2 SWAP1 MSTORE POP DUP7 DUP7 DUP1 DUP1 PUSH1 0x1F ADD PUSH1 0x20 DUP1 SWAP2 DIV MUL PUSH1 0x20 ADD PUSH1 0x40 MLOAD SWAP1 DUP2 ADD PUSH1 0x40 MSTORE DUP1 SWAP4 SWAP3 SWAP2 SWAP1 DUP2 DUP2 MSTORE PUSH1 0x20 ADD DUP4 DUP4 DUP1 DUP3 DUP5 CALLDATACOPY PUSH0 DUP2 DUP5 ADD MSTORE PUSH1 0x1F NOT PUSH1 0x1F DUP3 ADD AND SWAP1 POP DUP1 DUP4 ADD SWAP3 POP POP POP POP POP POP POP DUP2 PUSH1 0x40 ADD DUP2 SWAP1 MSTORE POP DUP5 DUP5 DUP1 DUP1 PUSH1 0x1F ADD PUSH1 0x20 DUP1 SWAP2 DIV MUL PUSH1 0x20 ADD PUSH1 0x40 MLOAD SWAP1 DUP2 ADD PUSH1 0x40 MSTORE DUP1 SWAP4 SWAP3 SWAP2 SWAP1 DUP2 DUP2 MSTORE PUSH1 0x20 ADD DUP4 DUP4 DUP1 DUP3 DUP5 CALLDATACOPY PUSH0 DUP2 DUP5 ADD MSTORE PUSH1 0x1F NOT PUSH1 0x1F DUP3 ADD AND SWAP1 POP DUP1 DUP4 ADD SWAP3 POP POP POP POP POP POP POP DUP2 PUSH1 0x60 ADD DUP2 SWAP1 MSTORE POP DUP3 DUP3 DUP1 DUP1 PUSH1 0x1F ADD PUSH1 0x20 DUP1 SWAP2 DIV MUL PUSH1 0x20 ADD PUSH1 0x40 MLOAD SWAP1 DUP2 ADD PUSH1 0x40 MSTORE DUP1 SWAP4 SWAP3 SWAP2 SWAP1 DUP2 DUP2 MSTORE PUSH1 0x20 ADD DUP4 DUP4 DUP1 DUP3 DUP5 CALLDATACOPY PUSH0 DUP2 DUP5 ADD MSTORE PUSH1 0x1F NOT PUSH1 0x1F DUP3 ADD AND SWAP1 POP DUP1 DUP4 ADD SWAP3 POP POP POP POP POP POP POP DUP2 PUSH1 0x80 ADD DUP2 SWAP1 MSTORE POP PUSH1 0x1 DUP2 PUSH1 0xC0 ADD SWAP1 ISZERO ISZERO SWAP1 DUP2 ISZERO ISZERO DUP2 MSTORE POP POP CALLER DUP2 PUSH0 ADD SWAP1 PUSH20 0xFFFFFFFFFFFFFFFFFFFFFFFFFFFFFFFFFFFFFFFF AND SWAP1 DUP2 PUSH20 0xFFFFFFFFFFFFFFFFFFFFFFFFFFFFFFFFFFFFFFFF AND DUP2 MSTORE POP POP PUSH1 0x1 PUSH0 DUP2 SLOAD DUP1 SWAP3 SWAP2 SWAP1 PUSH2 0xA31 SWAP1 PUSH2 0x122E JUMP JUMPDEST SWAP2 SWAP1 POP SSTORE POP DUP1 PUSH1 0x2 PUSH0 PUSH1 0x1 SLOAD DUP2 MSTORE PUSH1 0x20 ADD SWAP1 DUP2 MSTORE PUSH1 0x20 ADD PUSH0 KECCAK256 PUSH0 DUP3 ADD MLOAD DUP2 PUSH0 ADD PUSH0 PUSH2 0x100 EXP DUP2 SLOAD DUP2 PUSH20 0xFFFFFFFFFFFFFFFFFFFFFFFFFFFFFFFFFFFFFFFF MUL NOT AND SWAP1 DUP4 PUSH20 0xFFFFFFFFFFFFFFFFFFFFFFFFFFFFFFFFFFFFFFFF AND MUL OR SWAP1 SSTORE POP PUSH1 0x20 DUP3 ADD MLOAD DUP2 PUSH1 0x1 ADD SWAP1 DUP2 PUSH2 0xAA3 SWAP2 SWAP1 PUSH2 0x1442 JUMP JUMPDEST POP PUSH1 0x40 DUP3 ADD MLOAD DUP2 PUSH1 0x2 ADD SWAP1 DUP2 PUSH2 0xAB9 SWAP2 SWAP1 PUSH2 0x1442 JUMP JUMPDEST POP PUSH1 0x60 DUP3 ADD MLOAD DUP2 PUSH1 0x3 ADD SWAP1 DUP2 PUSH2 0xACF SWAP2 SWAP1 PUSH2 0x1442 JUMP JUMPDEST POP PUSH1 0x80 DUP3 ADD MLOAD DUP2 PUSH1 0x4 ADD SWAP1 DUP2 PUSH2 0xAE5 SWAP2 SWAP1 PUSH2 0x1442 JUMP JUMPDEST POP PUSH1 0xA0 DUP3 ADD MLOAD DUP2 PUSH1 0x5 ADD SSTORE PUSH1 0xC0 DUP3 ADD MLOAD DUP2 PUSH1 0x6 ADD PUSH0 PUSH2 0x100 EXP DUP2 SLOAD DUP2 PUSH1 0xFF MUL NOT AND SWAP1 DUP4 ISZERO ISZERO MUL OR SWAP1 SSTORE POP SWAP1 POP POP POP POP POP POP POP POP POP POP POP JUMP JUMPDEST PUSH0 CALLVALUE GT PUSH2 0xB5F JUMPI PUSH1 0x40 MLOAD PUSH32 0x8C379A000000000000000000000000000000000000000000000000000000000 DUP2 MSTORE PUSH1 0x4 ADD PUSH2 0xB56 SWAP1 PUSH2 0x1581 JUMP JUMPDEST PUSH1 0x40 MLOAD DUP1 SWAP2 SUB SWAP1 REVERT JUMPDEST PUSH1 0x1 ISZERO ISZERO PUSH1 0x2 PUSH0 DUP4 DUP2 MSTORE PUSH1 0x20 ADD SWAP1 DUP2 MSTORE PUSH1 0x20 ADD PUSH0 KECCAK256 PUSH1 0x6 ADD PUSH0 SWAP1 SLOAD SWAP1 PUSH2 0x100 EXP SWAP1 DIV PUSH1 0xFF AND ISZERO ISZERO EQ PUSH2 0xBC6 JUMPI PUSH1 0x40 MLOAD PUSH32 0x8C379A000000000000000000000000000000000000000000000000000000000 DUP2 MSTORE PUSH1 0x4 ADD PUSH2 0xBBD SWAP1 PUSH2 0x15E9 JUMP JUMPDEST PUSH1 0x40 MLOAD DUP1 SWAP2 SUB SWAP1 REVERT JUMPDEST CALLVALUE PUSH1 0x2 PUSH0 DUP4 DUP2 MSTORE PUSH1 0x20 ADD SWAP1 DUP2 MSTORE PUSH1 0x20 ADD PUSH0 KECCAK256 PUSH1 0x5 ADD PUSH0 DUP3 DUP3 SLOAD PUSH2 0xBE9 SWAP2 SWAP1 PUSH2 0x1607 JUMP JUMPDEST SWAP3 POP POP DUP2 SWAP1 SSTORE POP POP JUMP JUMPDEST PUSH1 0x40 MLOAD DUP1 PUSH1 0xE0 ADD PUSH1 0x40 MSTORE DUP1 PUSH0 PUSH20 0xFFFFFFFFFFFFFFFFFFFFFFFFFFFFFFFFFFFFFFFF AND DUP2 MSTORE PUSH1 0x20 ADD PUSH1 0x60 DUP2 MSTORE PUSH1 0x20 ADD PUSH1 0x60 DUP2 MSTORE PUSH1 0x20 ADD PUSH1 0x60 DUP2 MSTORE PUSH1 0x20 ADD PUSH1 0x60 DUP2 MSTORE PUSH1 0x20 ADD PUSH0 DUP2 MSTORE PUSH1 0x20 ADD PUSH0 ISZERO ISZERO DUP2 MSTORE POP SWAP1 JUMP JUMPDEST PUSH0 PUSH0 REVERT JUMPDEST PUSH0 PUSH0 REVERT JUMPDEST PUSH0 DUP2 SWAP1 POP SWAP2 SWAP1 POP JUMP JUMPDEST PUSH2 0xC5F DUP2 PUSH2 0xC4D JUMP JUMPDEST DUP2 EQ PUSH2 0xC69 JUMPI PUSH0 PUSH0 REVERT JUMPDEST POP JUMP JUMPDEST PUSH0 DUP2 CALLDATALOAD SWAP1 POP PUSH2 0xC7A DUP2 PUSH2 0xC56 JUMP JUMPDEST SWAP3 SWAP2 POP POP JUMP JUMPDEST PUSH0 PUSH1 0x20 DUP3 DUP5 SUB SLT ISZERO PUSH2 0xC95 JUMPI PUSH2 0xC94 PUSH2 0xC45 JUMP JUMPDEST JUMPDEST PUSH0 PUSH2 0xCA2 DUP5 DUP3 DUP6 ADD PUSH2 0xC6C JUMP JUMPDEST SWAP2 POP POP SWAP3 SWAP2 POP POP JUMP JUMPDEST PUSH0 PUSH20 0xFFFFFFFFFFFFFFFFFFFFFFFFFFFFFFFFFFFFFFFF DUP3 AND SWAP1 POP SWAP2 SWAP1 POP JUMP JUMPDEST PUSH0 PUSH2 0xCD4 DUP3 PUSH2 0xCAB JUMP JUMPDEST SWAP1 POP SWAP2 SWAP1 POP JUMP JUMPDEST PUSH2 0xCE4 DUP2 PUSH2 0xCCA JUMP JUMPDEST DUP3 MSTORE POP POP JUMP JUMPDEST PUSH0 DUP2 MLOAD SWAP1 POP SWAP2 SWAP1 POP JUMP JUMPDEST PUSH0 DUP3 DUP3 MSTORE PUSH1 0x20 DUP3 ADD SWAP1 POP SWAP3 SWAP2 POP POP JUMP JUMPDEST DUP3 DUP2 DUP4 MCOPY PUSH0 DUP4 DUP4 ADD MSTORE POP POP POP JUMP JUMPDEST PUSH0 PUSH1 0x1F NOT PUSH1 0x1F DUP4 ADD AND SWAP1 POP SWAP2 SWAP1 POP JUMP JUMPDEST PUSH0 PUSH2 0xD2C DUP3 PUSH2 0xCEA JUMP JUMPDEST PUSH2 0xD36 DUP2 DUP6 PUSH2 0xCF4 JUMP JUMPDEST SWAP4 POP PUSH2 0xD46 DUP2 DUP6 PUSH1 0x20 DUP7 ADD PUSH2 0xD04 JUMP JUMPDEST PUSH2 0xD4F DUP2 PUSH2 0xD12 JUMP JUMPDEST DUP5 ADD SWAP2 POP POP SWAP3 SWAP2 POP POP JUMP JUMPDEST PUSH2 0xD63 DUP2 PUSH2 0xC4D JUMP JUMPDEST DUP3 MSTORE POP POP JUMP JUMPDEST PUSH0 DUP2 ISZERO ISZERO SWAP1 POP SWAP2 SWAP1 POP JUMP JUMPDEST PUSH2 0xD7D DUP2 PUSH2 0xD69 JUMP JUMPDEST DUP3 MSTORE POP POP JUMP JUMPDEST PUSH0 PUSH1 0xE0 DUP3 ADD SWAP1 POP PUSH2 0xD96 PUSH0 DUP4 ADD DUP11 PUSH2 0xCDB JUMP JUMPDEST DUP2 DUP2 SUB PUSH1 0x20 DUP4 ADD MSTORE PUSH2 0xDA8 DUP2 DUP10 PUSH2 0xD22 JUMP JUMPDEST SWAP1 POP DUP2 DUP2 SUB PUSH1 0x40 DUP4 ADD MSTORE PUSH2 0xDBC DUP2 DUP9 PUSH2 0xD22 JUMP JUMPDEST SWAP1 POP DUP2 DUP2 SUB PUSH1 0x60 DUP4 ADD MSTORE PUSH2 0xDD0 DUP2 DUP8 PUSH2 0xD22 JUMP JUMPDEST SWAP1 POP DUP2 DUP2 SUB PUSH1 0x80 DUP4 ADD MSTORE PUSH2 0xDE4 DUP2 DUP7 PUSH2 0xD22 JUMP JUMPDEST SWAP1 POP PUSH2 0xDF3 PUSH1 0xA0 DUP4 ADD DUP6 PUSH2 0xD5A JUMP JUMPDEST PUSH2 0xE00 PUSH1 0xC0 DUP4 ADD DUP5 PUSH2 0xD74 JUMP JUMPDEST SWAP9 SWAP8 POP POP POP POP POP POP POP POP JUMP JUMPDEST PUSH0 PUSH1 0x20 DUP3 ADD SWAP1 POP PUSH2 0xE1F PUSH0 DUP4 ADD DUP5 PUSH2 0xD5A JUMP JUMPDEST SWAP3 SWAP2 POP POP JUMP JUMPDEST PUSH0 PUSH0 REVERT JUMPDEST PUSH0 PUSH0 REVERT JUMPDEST PUSH0 PUSH0 REVERT JUMPDEST PUSH0 PUSH0 DUP4 PUSH1 0x1F DUP5 ADD SLT PUSH2 0xE46 JUMPI PUSH2 0xE45 PUSH2 0xE25 JUMP JUMPDEST JUMPDEST DUP3 CALLDATALOAD SWAP1 POP PUSH8 0xFFFFFFFFFFFFFFFF DUP2 GT ISZERO PUSH2 0xE63 JUMPI PUSH2 0xE62 PUSH2 0xE29 JUMP JUMPDEST JUMPDEST PUSH1 0x20 DUP4 ADD SWAP2 POP DUP4 PUSH1 0x1 DUP3 MUL DUP4 ADD GT ISZERO PUSH2 0xE7F JUMPI PUSH2 0xE7E PUSH2 0xE2D JUMP JUMPDEST JUMPDEST SWAP3 POP SWAP3 SWAP1 POP JUMP JUMPDEST PUSH0 PUSH0 PUSH0 PUSH0 PUSH0 PUSH0 PUSH0 PUSH0 PUSH1 0x80 DUP10 DUP12 SUB SLT ISZERO PUSH2 0xEA2 JUMPI PUSH2 0xEA1 PUSH2 0xC45 JUMP JUMPDEST JUMPDEST PUSH0 DUP10 ADD CALLDATALOAD PUSH8 0xFFFFFFFFFFFFFFFF DUP2 GT ISZERO PUSH2 0xEBF JUMPI PUSH2 0xEBE PUSH2 0xC49 JUMP JUMPDEST JUMPDEST PUSH2 0xECB DUP12 DUP3 DUP13 ADD PUSH2 0xE31 JUMP JUMPDEST SWAP9 POP SWAP9 POP POP PUSH1 0x20 DUP10 ADD CALLDATALOAD PUSH8 0xFFFFFFFFFFFFFFFF DUP2 GT ISZERO PUSH2 0xEEE JUMPI PUSH2 0xEED PUSH2 0xC49 JUMP JUMPDEST JUMPDEST PUSH2 0xEFA DUP12 DUP3 DUP13 ADD PUSH2 0xE31 JUMP JUMPDEST SWAP7 POP SWAP7 POP POP PUSH1 0x40 DUP10 ADD CALLDATALOAD PUSH8 0xFFFFFFFFFFFFFFFF DUP2 GT ISZERO PUSH2 0xF1D JUMPI PUSH2 0xF1C PUSH2 0xC49 JUMP JUMPDEST JUMPDEST PUSH2 0xF29 DUP12 DUP3 DUP13 ADD PUSH2 0xE31 JUMP JUMPDEST SWAP5 POP SWAP5 POP POP PUSH1 0x60 DUP10 ADD CALLDATALOAD PUSH8 0xFFFFFFFFFFFFFFFF DUP2 GT ISZERO PUSH2 0xF4C JUMPI PUSH2 0xF4B PUSH2 0xC49 JUMP JUMPDEST JUMPDEST PUSH2 0xF58 DUP12 DUP3 DUP13 ADD PUSH2 0xE31 JUMP JUMPDEST SWAP3 POP SWAP3 POP POP SWAP3 SWAP6 SWAP9 POP SWAP3 SWAP6 SWAP9 SWAP1 SWAP4 SWAP7 POP JUMP JUMPDEST PUSH32 0x4E487B7100000000000000000000000000000000000000000000000000000000 PUSH0 MSTORE PUSH1 0x22 PUSH1 0x4 MSTORE PUSH1 0x24 PUSH0 REVERT JUMPDEST PUSH0 PUSH1 0x2 DUP3 DIV SWAP1 POP PUSH1 0x1 DUP3 AND DUP1 PUSH2 0xFAE JUMPI PUSH1 0x7F DUP3 AND SWAP2 POP JUMPDEST PUSH1 0x20 DUP3 LT DUP2 SUB PUSH2 0xFC1 JUMPI PUSH2 0xFC0 PUSH2 0xF6A JUMP JUMPDEST JUMPDEST POP SWAP2 SWAP1 POP JUMP JUMPDEST PUSH32 0x596F7520646F206E6F742068617665207065726D6974696F6E00000000000000 PUSH0 DUP3 ADD MSTORE POP JUMP JUMPDEST PUSH0 PUSH2 0xFFB PUSH1 0x19 DUP4 PUSH2 0xCF4 JUMP JUMPDEST SWAP2 POP PUSH2 0x1006 DUP3 PUSH2 0xFC7 JUMP JUMPDEST PUSH1 0x20 DUP3 ADD SWAP1 POP SWAP2 SWAP1 POP JUMP JUMPDEST PUSH0 PUSH1 0x20 DUP3 ADD SWAP1 POP DUP2 DUP2 SUB PUSH0 DUP4 ADD MSTORE PUSH2 0x1028 DUP2 PUSH2 0xFEF JUMP JUMPDEST SWAP1 POP SWAP2 SWAP1 POP JUMP JUMPDEST PUSH32 0x746869732063616D706169676E20697320636C6F736564000000000000000000 PUSH0 DUP3 ADD MSTORE POP JUMP JUMPDEST PUSH0 PUSH2 0x1063 PUSH1 0x17 DUP4 PUSH2 0xCF4 JUMP JUMPDEST SWAP2 POP PUSH2 0x106E DUP3 PUSH2 0x102F JUMP JUMPDEST PUSH1 0x20 DUP3 ADD SWAP1 POP SWAP2 SWAP1 POP JUMP JUMPDEST PUSH0 PUSH1 0x20 DUP3 ADD SWAP1 POP DUP2 DUP2 SUB PUSH0 DUP4 ADD MSTORE PUSH2 0x1090 DUP2 PUSH2 0x1057 JUMP JUMPDEST SWAP1 POP SWAP2 SWAP1 POP JUMP JUMPDEST PUSH32 0x746869732063616D706169676E20646F73206E6F74206861766520656E6F7567 PUSH0 DUP3 ADD MSTORE PUSH32 0x682062616C616E63650000000000000000000000000000000000000000000000 PUSH1 0x20 DUP3 ADD MSTORE POP JUMP JUMPDEST PUSH0 PUSH2 0x10F1 PUSH1 0x29 DUP4 PUSH2 0xCF4 JUMP JUMPDEST SWAP2 POP PUSH2 0x10FC DUP3 PUSH2 0x1097 JUMP JUMPDEST PUSH1 0x40 DUP3 ADD SWAP1 POP SWAP2 SWAP1 POP JUMP JUMPDEST PUSH0 PUSH1 0x20 DUP3 ADD SWAP1 POP DUP2 DUP2 SUB PUSH0 DUP4 ADD MSTORE PUSH2 0x111E DUP2 PUSH2 0x10E5 JUMP JUMPDEST SWAP1 POP SWAP2 SWAP1 POP JUMP JUMPDEST PUSH32 0x4E487B7100000000000000000000000000000000000000000000000000000000 PUSH0 MSTORE PUSH1 0x11 PUSH1 0x4 MSTORE PUSH1 0x24 PUSH0 REVERT JUMPDEST PUSH0 PUSH2 0x115C DUP3 PUSH2 0xC4D JUMP JUMPDEST SWAP2 POP PUSH2 0x1167 DUP4 PUSH2 0xC4D JUMP JUMPDEST SWAP3 POP DUP3 DUP3 SUB SWAP1 POP DUP2 DUP2 GT ISZERO PUSH2 0x117F JUMPI PUSH2 0x117E PUSH2 0x1125 JUMP JUMPDEST JUMPDEST SWAP3 SWAP2 POP POP JUMP JUMPDEST PUSH0 DUP2 SWAP1 POP SWAP3 SWAP2 POP POP JUMP JUMPDEST POP JUMP JUMPDEST PUSH0 PUSH2 0x119D PUSH0 DUP4 PUSH2 0x1185 JUMP JUMPDEST SWAP2 POP PUSH2 0x11A8 DUP3 PUSH2 0x118F JUMP JUMPDEST PUSH0 DUP3 ADD SWAP1 POP SWAP2 SWAP1 POP JUMP JUMPDEST PUSH0 PUSH2 0x11BC DUP3 PUSH2 0x1192 JUMP JUMPDEST SWAP2 POP DUP2 SWAP1 POP SWAP2 SWAP1 POP JUMP JUMPDEST PUSH32 0x46616C6861206E61207472616E73666572656E63696100000000000000000000 PUSH0 DUP3 ADD MSTORE POP JUMP JUMPDEST PUSH0 PUSH2 0x11FA PUSH1 0x16 DUP4 PUSH2 0xCF4 JUMP JUMPDEST SWAP2 POP PUSH2 0x1205 DUP3 PUSH2 0x11C6 JUMP JUMPDEST PUSH1 0x20 DUP3 ADD SWAP1 POP SWAP2 SWAP1 POP JUMP JUMPDEST PUSH0 PUSH1 0x20 DUP3 ADD SWAP1 POP DUP2 DUP2 SUB PUSH0 DUP4 ADD MSTORE PUSH2 0x1227 DUP2 PUSH2 0x11EE JUMP JUMPDEST SWAP1 POP SWAP2 SWAP1 POP JUMP JUMPDEST PUSH0 PUSH2 0x1238 DUP3 PUSH2 0xC4D JUMP JUMPDEST SWAP2 POP PUSH32 0xFFFFFFFFFFFFFFFFFFFFFFFFFFFFFFFFFFFFFFFFFFFFFFFFFFFFFFFFFFFFFFFF DUP3 SUB PUSH2 0x126A JUMPI PUSH2 0x1269 PUSH2 0x1125 JUMP JUMPDEST JUMPDEST PUSH1 0x1 DUP3 ADD SWAP1 POP SWAP2 SWAP1 POP JUMP JUMPDEST PUSH32 0x4E487B7100000000000000000000000000000000000000000000000000000000 PUSH0 MSTORE PUSH1 0x41 PUSH1 0x4 MSTORE PUSH1 0x24 PUSH0 REVERT JUMPDEST PUSH0 DUP2 SWAP1 POP DUP2 PUSH0 MSTORE PUSH1 0x20 PUSH0 KECCAK256 SWAP1 POP SWAP2 SWAP1 POP JUMP JUMPDEST PUSH0 PUSH1 0x20 PUSH1 0x1F DUP4 ADD DIV SWAP1 POP SWAP2 SWAP1 POP JUMP JUMPDEST PUSH0 DUP3 DUP3 SHL SWAP1 POP SWAP3 SWAP2 POP POP JUMP JUMPDEST PUSH0 PUSH1 0x8 DUP4 MUL PUSH2 0x12FE PUSH32 0xFFFFFFFFFFFFFFFFFFFFFFFFFFFFFFFFFFFFFFFFFFFFFFFFFFFFFFFFFFFFFFFF DUP3 PUSH2 0x12C3 JUMP JUMPDEST PUSH2 0x1308 DUP7 DUP4 PUSH2 0x12C3 JUMP JUMPDEST SWAP6 POP DUP1 NOT DUP5 AND SWAP4 POP DUP1 DUP7 AND DUP5 OR SWAP3 POP POP POP SWAP4 SWAP3 POP POP POP JUMP JUMPDEST PUSH0 DUP2 SWAP1 POP SWAP2 SWAP1 POP JUMP JUMPDEST PUSH0 PUSH2 0x1343 PUSH2 0x133E PUSH2 0x1339 DUP5 PUSH2 0xC4D JUMP JUMPDEST PUSH2 0x1320 JUMP JUMPDEST PUSH2 0xC4D JUMP JUMPDEST SWAP1 POP SWAP2 SWAP1 POP JUMP JUMPDEST PUSH0 DUP2 SWAP1 POP SWAP2 SWAP1 POP JUMP JUMPDEST PUSH2 0x135C DUP4 PUSH2 0x1329 JUMP JUMPDEST PUSH2 0x1370 PUSH2 0x1368 DUP3 PUSH2 0x134A JUMP JUMPDEST DUP5 DUP5 SLOAD PUSH2 0x12CF JUMP JUMPDEST DUP3 SSTORE POP POP POP POP JUMP JUMPDEST PUSH0 PUSH0 SWAP1 POP SWAP1 JUMP JUMPDEST PUSH2 0x1387 PUSH2 0x1378 JUMP JUMPDEST PUSH2 0x1392 DUP2 DUP5 DUP5 PUSH2 0x1353 JUMP JUMPDEST POP POP POP JUMP JUMPDEST JUMPDEST DUP2 DUP2 LT ISZERO PUSH2 0x13B5 JUMPI PUSH2 0x13AA PUSH0 DUP3 PUSH2 0x137F JUMP JUMPDEST PUSH1 0x1 DUP2 ADD SWAP1 POP PUSH2 0x1398 JUMP JUMPDEST POP POP JUMP JUMPDEST PUSH1 0x1F DUP3 GT ISZERO PUSH2 0x13FA JUMPI PUSH2 0x13CB DUP2 PUSH2 0x12A2 JUMP JUMPDEST PUSH2 0x13D4 DUP5 PUSH2 0x12B4 JUMP JUMPDEST DUP2 ADD PUSH1 0x20 DUP6 LT ISZERO PUSH2 0x13E3 JUMPI DUP2 SWAP1 POP JUMPDEST PUSH2 0x13F7 PUSH2 0x13EF DUP6 PUSH2 0x12B4 JUMP JUMPDEST DUP4 ADD DUP3 PUSH2 0x1397 JUMP JUMPDEST POP POP JUMPDEST POP POP POP JUMP JUMPDEST PUSH0 DUP3 DUP3 SHR SWAP1 POP SWAP3 SWAP2 POP POP JUMP JUMPDEST PUSH0 PUSH2 0x141A PUSH0 NOT DUP5 PUSH1 0x8 MUL PUSH2 0x13FF JUMP JUMPDEST NOT DUP1 DUP4 AND SWAP2 POP POP SWAP3 SWAP2 POP POP JUMP JUMPDEST PUSH0 PUSH2 0x1432 DUP4 DUP4 PUSH2 0x140B JUMP JUMPDEST SWAP2 POP DUP3 PUSH1 0x2 MUL DUP3 OR SWAP1 POP SWAP3 SWAP2 POP POP JUMP JUMPDEST PUSH2 0x144B DUP3 PUSH2 0xCEA JUMP JUMPDEST PUSH8 0xFFFFFFFFFFFFFFFF DUP2 GT ISZERO PUSH2 0x1464 JUMPI PUSH2 0x1463 PUSH2 0x1275 JUMP JUMPDEST JUMPDEST PUSH2 0x146E DUP3 SLOAD PUSH2 0xF97 JUMP JUMPDEST PUSH2 0x1479 DUP3 DUP3 DUP6 PUSH2 0x13B9 JUMP JUMPDEST PUSH0 PUSH1 0x20 SWAP1 POP PUSH1 0x1F DUP4 GT PUSH1 0x1 DUP2 EQ PUSH2 0x14AA JUMPI PUSH0 DUP5 ISZERO PUSH2 0x1498 JUMPI DUP3 DUP8 ADD MLOAD SWAP1 POP JUMPDEST PUSH2 0x14A2 DUP6 DUP3 PUSH2 0x1427 JUMP JUMPDEST DUP7 SSTORE POP PUSH2 0x1509 JUMP JUMPDEST PUSH1 0x1F NOT DUP5 AND PUSH2 0x14B8 DUP7 PUSH2 0x12A2 JUMP JUMPDEST PUSH0 JUMPDEST DUP3 DUP2 LT ISZERO PUSH2 0x14DF JUMPI DUP5 DUP10 ADD MLOAD DUP3 SSTORE PUSH1 0x1 DUP3 ADD SWAP2 POP PUSH1 0x20 DUP6 ADD SWAP5 POP PUSH1 0x20 DUP2 ADD SWAP1 POP PUSH2 0x14BA JUMP JUMPDEST DUP7 DUP4 LT ISZERO PUSH2 0x14FC JUMPI DUP5 DUP10 ADD MLOAD PUSH2 0x14F8 PUSH1 0x1F DUP10 AND DUP3 PUSH2 0x140B JUMP JUMPDEST DUP4 SSTORE POP JUMPDEST PUSH1 0x1 PUSH1 0x2 DUP9 MUL ADD DUP9 SSTORE POP POP POP JUMPDEST POP POP POP POP POP POP JUMP JUMPDEST PUSH32 0x796F75206D7573742073656E64206120646F6E6174696F6F6E2076616C6F7220 PUSH0 DUP3 ADD MSTORE PUSH32 0x3E20300000000000000000000000000000000000000000000000000000000000 PUSH1 0x20 DUP3 ADD MSTORE POP JUMP JUMPDEST PUSH0 PUSH2 0x156B PUSH1 0x23 DUP4 PUSH2 0xCF4 JUMP JUMPDEST SWAP2 POP PUSH2 0x1576 DUP3 PUSH2 0x1511 JUMP JUMPDEST PUSH1 0x40 DUP3 ADD SWAP1 POP SWAP2 SWAP1 POP JUMP JUMPDEST PUSH0 PUSH1 0x20 DUP3 ADD SWAP1 POP DUP2 DUP2 SUB PUSH0 DUP4 ADD MSTORE PUSH2 0x1598 DUP2 PUSH2 0x155F JUMP JUMPDEST SWAP1 POP SWAP2 SWAP1 POP JUMP JUMPDEST PUSH32 0x43616E6E6F7420646F6E61746520746F20746869732063616D706169676E0000 PUSH0 DUP3 ADD MSTORE POP JUMP JUMPDEST PUSH0 PUSH2 0x15D3 PUSH1 0x1E DUP4 PUSH2 0xCF4 JUMP JUMPDEST SWAP2 POP PUSH2 0x15DE DUP3 PUSH2 0x159F JUMP JUMPDEST PUSH1 0x20 DUP3 ADD SWAP1 POP SWAP2 SWAP1 POP JUMP JUMPDEST PUSH0 PUSH1 0x20 DUP3 ADD SWAP1 POP DUP2 DUP2 SUB PUSH0 DUP4 ADD MSTORE PUSH2 0x1600 DUP2 PUSH2 0x15C7 JUMP JUMPDEST SWAP1 POP SWAP2 SWAP1 POP JUMP JUMPDEST PUSH0 PUSH2 0x1611 DUP3 PUSH2 0xC4D JUMP JUMPDEST SWAP2 POP PUSH2 0x161C DUP4 PUSH2 0xC4D JUMP JUMPDEST SWAP3 POP DUP3 DUP3 ADD SWAP1 POP DUP1 DUP3 GT ISZERO PUSH2 0x1634 JUMPI PUSH2 0x1633 PUSH2 0x1125 JUMP JUMPDEST JUMPDEST SWAP3 SWAP2 POP POP JUMP INVALID LOG2 PUSH5 0x6970667358 0x22 SLT KECCAK256 INVALID 0x1F 0xAD 0xB6 CODESIZE BLOBBASEFEE SWAPN 0xE9 SGT SLOAD INVALID 0xC5 PUSH6 0x3C517561EE69 0xC5 REVERT KECCAK256 0xB4 0xA9 0xD6 PUSH6 0xB943A6000D38 PUSH5 0x736F6C6343 STOP ADDMOD 0x1E STOP CALLER "
				},
				"gasEstimates": {
					"creation": {
						"codeDepositCost": "1148800",
						"executionCost": "28302",
						"totalCost": "1177102"
					},
					"external": {
						"Campaigns(uint256)": "infinite",
						"addCampaign(string,string,string,string)": "infinite",
						"donate(uint256)": "infinite",
						"fee()": "2468",
						"nextId()": "2447",
						"withdraw(uint256)": "infinite"
					}
				},
				"methodIdentifiers": {
					"Campaigns(uint256)": "4013be10",
					"addCampaign(string,string,string,string)": "ec671486",
					"donate(uint256)": "f14faf6f",
					"fee()": "ddca3f43",
					"nextId()": "61b8ce8c",
					"withdraw(uint256)": "2e1a7d4d"
				}
			},
			"storageLayout": {
				"storage": [
					{
						"astId": 19,
						"contract": "src/contract/donate.sol:DonateCrypto",
						"label": "fee",
						"offset": 0,
						"slot": "0",
						"type": "t_uint256"
					},
					{
						"astId": 22,
						"contract": "src/contract/donate.sol:DonateCrypto",
						"label": "nextId",
						"offset": 0,
						"slot": "1",
						"type": "t_uint256"
					},
					{
						"astId": 27,
						"contract": "src/contract/donate.sol:DonateCrypto",
						"label": "Campaigns",
						"offset": 0,
						"slot": "2",
						"type": "t_mapping(t_uint256,t_struct(Campaign)16_storage)"
					}
				],
				"types": {
					"t_address": {
						"encoding": "inplace",
						"label": "address",
						"numberOfBytes": "20"
					},
					"t_bool": {
						"encoding": "inplace",
						"label": "bool",
						"numberOfBytes": "1"
					},
					"t_mapping(t_uint256,t_struct(Campaign)16_storage)": {
						"encoding": "mapping",
						"key": "t_uint256",
						"label": "mapping(uint256 => struct Campaign)",
						"numberOfBytes": "32",
						"value": "t_struct(Campaign)16_storage"
					},
					"t_string_storage": {
						"encoding": "bytes",
						"label": "string",
						"numberOfBytes": "32"
					},
					"t_struct(Campaign)16_storage": {
						"encoding": "inplace",
						"label": "struct Campaign",
						"members": [
							{
								"astId": 3,
								"contract": "src/contract/donate.sol:DonateCrypto",
								"label": "author",
								"offset": 0,
								"slot": "0",
								"type": "t_address"
							},
							{
								"astId": 5,
								"contract": "src/contract/donate.sol:DonateCrypto",
								"label": "title",
								"offset": 0,
								"slot": "1",
								"type": "t_string_storage"
							},
							{
								"astId": 7,
								"contract": "src/contract/donate.sol:DonateCrypto",
								"label": "description",
								"offset": 0,
								"slot": "2",
								"type": "t_string_storage"
							},
							{
								"astId": 9,
								"contract": "src/contract/donate.sol:DonateCrypto",
								"label": "videoUrl",
								"offset": 0,
								"slot": "3",
								"type": "t_string_storage"
							},
							{
								"astId": 11,
								"contract": "src/contract/donate.sol:DonateCrypto",
								"label": "imgUrl",
								"offset": 0,
								"slot": "4",
								"type": "t_string_storage"
							},
							{
								"astId": 13,
								"contract": "src/contract/donate.sol:DonateCrypto",
								"label": "balance",
								"offset": 0,
								"slot": "5",
								"type": "t_uint256"
							},
							{
								"astId": 15,
								"contract": "src/contract/donate.sol:DonateCrypto",
								"label": "active",
								"offset": 0,
								"slot": "6",
								"type": "t_bool"
							}
						],
						"numberOfBytes": "224"
					},
					"t_uint256": {
						"encoding": "inplace",
						"label": "uint256",
						"numberOfBytes": "32"
					}
				}
			},
			"userdoc": {
				"kind": "user",
				"methods": {},
				"version": 1
			}
		}
	}
}